:0200000470107A
:1000000053544D32000000000000000000000000CA
:1000100000000000000000000000000000000000E0
:1000200000000000000000000000000000000000D0
:1000300000000000000000000000000000000000C0
:1000400000000000000000000000000000000000B0
:1000500000000000000000000000000000000000A0
:1000600000000000D656F0000003020000B50200B8
:100070007D4F013400000000FFFFFFFF0000000083
:100080000000000000000080A0010000000000004F
:100090000000000000000000000000000000000060
:1000A0005354FFFFA001000028B4737779024AC5BA
:1000B0002F3765142122E6A285A8B72812A9721746
:1000C000F2A56A4C71E896E78863EE12C7D13B65EA
:1000D0009F9D789A8FA492C28CC7540A942D79E37D
:1000E000EFB0DB3A966E03C5F1981BE0B12ADF70E2
:1000F000B1EA9C228665CA9733638415449E26AE76
:10010000C2AB9F2DFBCFC600974E85D5F5A52B7CA6
:10011000657BC3FD03F0A9557A3E25B917632051CD
:10012000BD46BA8A4877CE872A4A7930257104DCE1
:100130003897AC3677DE4D7043BC23E242A9FA52C1
:100140003311927BA60E37CEFF16D92E166886EF96
:100150003983CE988D853BCF98EAC12EBB4BC176B3
:100160006567E5F42F0072EFE6E998703BB43DBD9A
:10017000CD2E667A7B3457B74284BAEE3B3E51C7E8
:10018000B22F92AA928E752A9EA32D063AF393322D
:10019000CB4A8212070C5FFFE10192B39331CAC3CD
:1001A00052D812D3ACF8780EB732352F5369DF7DB1
:1001B00003B8EB3AB9BB66C4E2DB949856C04C4E28
:1001C00010C573D627EAA622C758378F22E03F49C9
:1001D00089D0379180404E3C3F12E845C21968D81B
:1001E0000CAE49F5BCCCE2E274E8837F4C27C851E1
:1001F0002DDA82818C56A1FB4230B6128AFA913FE9
:1002000011CF5D945857F6F2643B3E7222E7A798EF
:10021000083B917200E016DD38E128FB56D08A16C3
:10022000BF8D723C1AF164F10B64E6A4941D733126
:1002300099E1907B142FF6751BD346F323C31AEF75
:1002400000000000000000000000000000000000AE
:10025000000000000000000000000000000000009E
:10026000000000000000000000000000000000008E
:10027000000000000000000000000000000000007E
:10028000000000000000000000000000000000006E
:10029000000000000000000000000000000000005E
:1002A000000000000000000000000000000000004E
:1002B000000000000000000000000000000000003E
:1002C000000000000000000000000000000000002E
:1002D000000000000000000000000000000000001E
:1002E000000000000000000000000000000000000E
:1002F00000000000000000000000000000000000FE
:1003000000000000000000000000000000000000ED
:1003100000000000000000000000000000000000DD
:1003200000000000000000000000000000000000CD
:1003300000000000000000000000000000000000BD
:1003400000000000000000000000000000000000AD
:10035000000000000000000000000000000000009D
:10036000000000000000000000000000000000008D
:10037000000000000000000000000000000000007D
:10038000000000000000000000000000000000006D
:10039000000000000000000000000000000000005D
:1003A000000000000000000000000000000000004D
:1003B000000000000000000000000000000000003D
:1003C000000000000000000000000000000000002D
:1003D000000000000000000000000000000000001D
:1003E000000000000000000000000000000000000D
:1003F00000000000000000000000000000000000FD
:10040000000010347D4F0134DD280034DF28003433
:10041000E1280034E3280034E5280034E7280034DC
:10042000000000000000000000000000E928003487
:10043000EB28003400000000ED280034EF280034E1
:10044000D94F013400000000D94F0134D94F013495
:10045000D94F0134D94F0134D94F0134D94F013428
:10046000D94F013400000000D94F0134D94F013475
:10047000D94F013475220034D94F013400000000F7
:10048000D94F013400000000D94F0134D94F013455
:10049000D94F0134D94F0134D94F0134D94F0134E8
:1004A000D94F0134D94F0134D94F0134D94F0134D8
:1004B000D94F0134D94F0134D94F0134D94F0134C8
:1004C000D94F01340F290034D94F0134D94F0134A9
:1004D000D94F0134D94F0134D94F0134D94F0134A8
:1004E000D94F013400000000D94F0134D94F0134F5
:1004F000D94F0134D94F0134D94F0134F328003496
:10050000012900340000000000000000000000008D
:10051000D94F0134154C0134D94F0134D94F01342E
:10052000D94F0134D94F0134D94F0134D94F013457
:10053000D94F0134D94F0134D94F0134D94F013447
:10054000D94F0134D94F0134D94F0134D94F013437
:10055000D94F0134D94F0134D94F0134D94F013427
:1007400000000000D94F0134D94F013400000000EF
:1007500010B5054C237833B9044B13B10448AFF3FB
:1007600000800123237010BD40B702340000000058
:10077000909D013408B5034B1BB103490348AFF307
:10078000008008BD0000000044B70234909D013491
:10079000034613F8012B002AFBD1181A01387047C1
:1007A00090EDAD5A30B52DED108B90EDA87BB5EEE8
:1007B000C05A89B08DED007BF1EE10FA90EDA47B6C
:1007C000044691ED014A91ED002A91ED02FB91ED75
:1007D00004EB90ED123B90EDAACB90ED16BB8DEDA6
:1007E000047B90EDA66B09DCD0F8C832D648984758
:1007F0004FF0FF3009B0BDEC108B30BDB8EE444B6C
:100800009FEDC37BB8EE422B24EE077BB4EEC27B98
:10081000F1EE10FA0FDD90ED1C7B9FEDBF1B37EE64
:10082000011B9FEDBF7BB4EEC71BF1EE10FA37FE44
:10083000017B80ED1C7B9FEDBC7B24EE074BB4EE6F
:10084000C24BF1EE10FA10D594ED1C7B9FEDB24B2C
:1008500037EE447B9FEDB64BB4EEC47BF1EE10FA5D
:1008600058BFB0EE474B84ED1C4B94F85050B7EE98
:10087000C55A012D64D19FEDB07B3FEE4E4B84EE07
:1008800007DB3FEE0E4B84EE07ABB0EECD7BB4EE54
:10089000C75BF1EE10FAB0EECA4B3CDBB4EEC45BC2
:1008A000F1EE10FA37DB002384F8783083EE0C9BEE
:1008B000BCEEC99BB8EE499B29EE0C9B0022FCEED6
:1008C000C95BB0EE498BCDED035A84F86020002B54
:1008D00000F08C80F7EECB0BB7EEC70B8DED066BFF
:1008E00019F0F2F8B2EE047BB7EEC00AB0EECE5BC0
:1008F00020EE070BB0EECF7BB4EEC57BF1EE10FA25
:100900009DED066B34DDB5EEC0FBF1EE10FA34D58B
:1009100039EE400B33E0B4EEC45BF1EE10FA25D5AE
:100920008AEE0D4B94EDAE5AB0EEC44BB7EEC55AFD
:10093000B4EEC54BF1EE10FAB4BF01230023B5E7C6
:10094000B0EECF7BB0EECE4BB4EE474BF1EE10FAEB
:1009500034FE077BB4EEC57B9FED79ABF1EE10FA68
:10096000B0EE4ADB8CBF012300239FE701239DE704
:10097000B5EEC0EBF1EE10FACAD539EE000B94EDEE
:100980003C7BB4EEC07BF1EE10FA03D5B0EE46BB73
:10099000B0EE470B94ED3A7BB4EEC07BF1EE10FA6B
:1009A00003DDB0EE46BBB0EE470B80EE0C8BBCEE29
:1009B000C88BB8EE488B012D2CEE088B16D1B4F8FD
:1009C000E030022B5FD8FCEEC97BB8EE677B04EB0E
:1009D000C30282ED207B82ED268B04EB03120133F0
:1009E00082ED2CDB82ED2EABA4F8E03094F8783069
:1009F0004BBB102204F1880104F180008DED066BE1
:100A000017F08FFB102204F1A00104F1980017F0F9
:100A100088FBD4E9302384ED249BC4E92C23D4E95A
:100A2000322384ED2A8BC4E92E23D4E934239DEDAF
:100A3000066BC4E93023D4E9362384ED34DB84ED3E
:100A400036ABC4E93223FCEEC87B17EE903A94ED46
:100A50001A7B039AB5EEC07B93421CBF012384F836
:100A60006030F1EE10FA71DD012384F860309DED05
:100A7000007BB4EEC7BBF1EE10FA79D59DED047B97
:100A80003BEE076B66E094ED2A7B94EDAF5A38EEAF
:100A9000477BB7EEC55AB0EEC77BB4EEC57BF1EE2F
:100AA00010FA2CDB94ED287B38EE477BB0EEC77B49
:100AB000B4EEC75BF1EE10FA21DD94ED320B94ED4C
:100AC000307B3AEE400B3DEE477B20EE000BA7EE6D
:100AD000070B8DED066B18F0BFFF94EDB07AB7EE03
:100AE000C77AB4EEC70BF1EE10FA9DED066B06D592
:100AF000FCEEC97B84F87850B8EE678B76E794F803
:100B00007830012B04BF002384F878306EE700BFF3
:100B10009A9999999999A93F7B14AE47E17A843FB4
:100B2000343333333333C33F333333333333C33F5C
:100B3000111111111111B13FCD3B7F669EA0F63FFF
:100B4000000000000000000088AC023494F860301F
:100B5000002B8CD188EE0C7BBCEEC77BB8EE477BBC
:100B600027EE0C7B84ED166B84ED127B012041E6B1
:100B70009DED006BEEE790ED1A6BB5EEC06B90ED5E
:100B8000124BF1EE10FA90EDAA5BB0EE467BDFBFA0
:100B900084EE057BBCEEC77BB8EE477B27EE057B7A
:100BA000B7EEC77B90ED3C5BB7EEC74AB4EEC54BE2
:100BB000F1EE10FAC8BFB7EEC57B90ED3A5BB7EE29
:100BC000C74AB4EEC54BF1EE10FA48BFB7EEC57B8D
:100BD000B7EEC75AD0F8743230B580ED125B93EDA2
:100BE000005AD0EDAC7AB4EEC75AF1EE675AF1EE86
:100BF00010FA4FF00001B0F8F83075FEA77A013B0B
:100C00008AB2934205D8442202FB030303F5907392
:100C100011E000EB8204D4ED445A77EEA55AF4EECD
:100C2000C75AF1EE10FA01F10101E9DB442303FB9D
:100C3000020202F59073B5EEC06BF1EE10FAC0F847
:100C4000743205DC93ED007AB7EEC77A80ED127B43
:100C50005A6803F1380142609A6803F12404826003
:100C6000DA68C2601A69026100F138025D690C330A
:100C70004561DD680C30C5601D69A342056151F80E
:100C8000045B42F8045BF1D1012030BD10B504468D
:100C900090B070B10023084C40212370C4F8C80202
:100CA000064B6846064A18F0A3FE6846D4F8C832D8
:100CB0009847204610B010BD60B7023450B40234DB
:100CC000C8AC0234002814BF01204FF0FF30704739
:100CD00080ED000A30B50C6844604C6884608C6814
:100CE000C460C96802F12404016100F1380115688B
:100CF0000C32456152F8085C0C30C56052F8045C57
:100D0000A242056153F8045B41F8045BEFD130BDAA
:100D10002DE9F04F2DED068B0E46B0EE409BB0EE68
:100D2000418B1D460446C7B0002800F08F819FED1F
:100D3000CCAB80ED12AB0020CF494FF00008C4E9E6
:100D40001601C4E9A601C4E9AA01CC49DFF8609301
:100D5000C4F8B0124FF07E51C4F8B4124FF07C5179
:100D6000C4E91A890FF20039D9E90089C4E91C895C
:100D7000C4E9A4894FF00008C4F8B812C049DFF8EC
:100D80003493C4F8BC124FF07F510023C4E9A88902
:100D900001274FF00008C4F8C012711EDFF8189345
:100DA00088B20428C4E9A0890FF2C429D9E90089CE
:100DB00084F86030C4E9A289A4F8E03084F878307F
:100DC000A4F8787214D905234FF48071AD4A06A8AF
:100DD00018F00EFED4F8C83206A8984784F8507070
:100DE000204647B0BDEC068BBDE8F04FFFF7C3BE11
:100DF00095ED007AB7EEC77AB4EEC70BF1EE10FAB4
:100E000012DDD4F8C832A048984795ED007AB7EEC5
:100E1000C77A8DED009B8DED027B9C4A4FF480716B
:100E200006A818F0E5FDD5E74FF0440C0CFB06587A
:100E300018ED117AB7EEC77AB4EEC71BF1EE10FACF
:100E400041D5D4F8C8329248984798ED007AB7EE69
:100E5000C77A8DED008B8DED027B8E4ADEE70CFBB1
:100E600008F705EB070944372F4499ED007AD7EDD1
:100E7000007AB4EEE77AF1EE10FA08F1010A00F117
:100E8000010021DBD4F8C8328348984797ED007AF7
:100E9000B7EEC77A8DED047BCDF808A099ED007A06
:100EA000B7EEC77A43468DED007B7C4A4FF48071E4
:100EB00006A818F09DFDD4F8C83206A8984701236B
:100EC00084F850308CE718461FFA80F84145C6D8A0
:100ED00000234FF0440CB01E9FB2B94239D884EDC4
:100EE0003A9B84ED3C8B0020A4F8F86083B29942D1
:100EF00000F1010000F28B800027B84604F1FC0AE3
:100F000004F5907905EB070B09EB070044225946DD
:100F100015F0E1FADBF8003008F101084AF8043B6B
:100F20001FFA88F39E4207F14407EBD8731E9BB269
:100F3000002E03F1010314BF1A460122C4F8749273
:100F400004F5B271013A6AD1012384F8503023705C
:100F500046E702EB8709B842D9ED007A4FEA8708E5
:100F600007F1010A1ED908F10408904498ED007AAF
:100F7000B4EEE77AF1EE10FA14D8D4F8C832484843
:100F8000984798ED007AB7EEC77A8DED047BCDF8DF
:100F900008A099ED007AB7EEC77A3B468DED007B4D
:100FA000404A83E70CFB07F805EB080A9AED007A44
:100FB000B4EEE77AF1EE10FA08F14408A84408DA32
:100FC00098ED007AB4EEE77AF1EE10FA03F101033E
:100FD00082D8D4F8C8323448984798ED007AB7EEF2
:100FE000C77A8DED047B9AED007AB7EEC77A8DED66
:100FF000027B99ED007AB7EEC77A3B468DED007B18
:101000004FF48071294A06A818F0F2FC53E702EB6E
:1010100083073F6804EB8303C3F8107166E7D4F8D5
:10102000743291ED006A93ED007AB7EEC66AB7EEBE
:10103000C77A36EE4A6B37EE4A7BB4EEC76BF1EEF9
:1010400010FA48BFC4F8741244317BE74FF0FF3008
:1010500047B0BDEC068BBDE8F08F00BFAFF300805A
:10106000000000000088B3409A9999999999B93F76
:101070000000000000A06E400000F03F0000484269
:1010800000002F43D8AC02341CAD0234A3AD0234AF
:1010900001AE023489AE0234E6AE02344AAF023405
:1010A000A2AF023411B002347BB00234D2B00234A9
:1010B0000000F0BF000008400000244030B50546A5
:1010C00014468DB052B9D0F8C8321D489847D5F8AB
:1010D000C8321C48984720460DB030BD93ED042B14
:1010E00093ED021B93ED000B0AAA08A906A800F0D5
:1010F0002FF8DDE90823CDE90223DDE90A23CDE954
:101100000423012398420446CDE90033DFD1694628
:101110002846FFF745FB0128044603D0D5F8C8321E
:101120000948D7E795F86030012BD4D12846FFF75E
:1011300022FD01280446CED0D5F8C8320348C9E7BD
:1011400058B10234B9B10234E2B1023416B20234F9
:10115000B5EEC00BF1EE10FA1FB509D4B5EEC01B09
:10116000F1EE10FA04D4B5EEC02BF1EE10FA0DD565
:101170008DED022B8DED001B53EC102B444814F029
:10118000DBFD4FF0FF3005B05DF804FB9FED327BD7
:10119000B4EEC70BF1EE10FA09DCB4EEC71BF1EEAA
:1011A00010FA04DCB4EEC72BF1EE10FA07DD8DED7A
:1011B000022B8DED001B53EC102B3648DFE728B1D6
:1011C00089B1B2B93449354B084607E071B13349AA
:1011D0003148002A304A314B18BF13460246304886
:1011E00014F0AAFDCDE72C492C48F2E72B4908461C
:1011F000EFE79FED1B7B9FED1C6B21EE077BB3EEB2
:10120000005BA0EE067B9FED1A6BA2EE057BA7EEBE
:10121000065B9FED197B80ED005B27EE417BBBEE0B
:101220000A5BA0EE057B9FED165BA2EE057B27EE29
:10123000067B81ED007B9FED147B27EE411BB2EE18
:10124000047BA0EE051BA2EE471B21EE061B01202E
:1012500082ED001B97E700BF0000000000E06F4038
:101260000000000000A06340000000000080474034
:10127000000000000000703F0000000000805540AA
:101280000000000000005C400000000000805940A9
:101290004BB2023489B20234B07F0234AE7F0234E2
:1012A000C9B20234000000002DE9F0419846436DB8
:1012B0000F460646069923B9C8F800700A60BDE8D3
:1012C000F081214D5B00B5FBF3F59542F4D2B2FB02
:1012D000F5F407EE902A04FB0554B8EE677A07EEA2
:1012E000904ADFED1A6AF8EE677A67EEA67AB4EEF6
:1012F000E77AF1EE10FADFD5621B0A60013207EEE1
:10130000902AF8EE677A87EE270AB7EEC00A17F040
:1013100003F89FED0B7B20EE070BBCEEC00B10EE2D
:10132000103A3B441F46C8F80030F36CBB4294BFF0
:10133000C8F80030C8F80070C1E700BFAFF3008004
:10134000000000000088D34040420F003333733F59
:1013500007EE901A9FED287AF8EE677A70B587EE5F
:10136000871A2DED028B08EE102AB7EEC11AB2EEE5
:10137000040B05461C46069E17F0B6F8B8EE488BDF
:1013800028EE000BFCEEC07B17EE902A696CB8EEDD
:10139000677A914216D900232360C6ED007A6B6C00
:1013A000DFED166A07EE903AF8EE677A67EEA67AF6
:1013B000B4EE677AF1EE10FAC8BF1A463260BDEC9F
:1013C000028B70BD07EE901AF8EE677A87EE270A57
:1013D0003160B7EEC00A16F09FFF9FED057B20EE4F
:1013E000070BBCEEC00B84ED000AE8E7AFF300800A
:1013F000000000000088D34000409C4648E17A3F4E
:1014000010B5044690B060B10023074C4021237012
:10141000A065064B6846064A18F0EAFA6846A36DCE
:101420009847204610B010BD30BA023456B402348A
:1014300013B30234002814BF01204FF0FF3070476F
:1014400038220A23C0E9042364222D237821C0E92D
:10145000062340F2DC5330B5C0E9081341F2707442
:1014600042F6E063C0E90A430BA5D5E90045052330
:1014700048F2E80103650023C0E910310121C0E909
:101480000C4507A5D5E90045C0E91212C0E90E4593
:10149000436530BDAFF3008000000040E17A943F27
:1014A000000000E04D62703F10B5044620B1FFF728
:1014B000C7FF0120207010BD4FF0FF30FBE72DE982
:1014C000F04F15469B46044687B0002800F0238164
:1014D0000378012B1AD102230370D4F85480B8F199
:1014E000000F17D0904B4FEA4802B3FBF2F3A66C03
:1014F0008E4211D2626CAA420ED9B5FBF3F203FB05
:1015000012534BB1C4E90156012006E1022BE4D08D
:10151000002002E10123EAE70DF114092A4604AB99
:101520002046CDF800900391FFF712FFDDE9047229
:10153000D4F810C0B6EE005B07EE90CAB8EE676A4A
:1015400007EE90BAB8EEE77BB7EEC66A37EE057BDA
:1015500086EE070B236DB7EEC00B9B45039948D26F
:10156000F0EE007AB4EEE70AF1EE10FA41D4616CC5
:10157000B7EE007A8A4220D2012A134638BF0123EF
:1015800007EE903AF8EEE77A67EE807AFDEEE77ABA
:1015900017EE903A8B42C1BF07EE901AB8EEE76A99
:1015A00007EE902AF8EE676AC3BFC6EE267A0B46AE
:1015B00080EE270AB0EE470A6360B4EEC70AF1EE88
:1015C00010FAA1DDB7EEC00A16F0A6FEB3EE047B5A
:1015D00020EE070B9FED527B20EE070BBDEEC00BFC
:1015E00010EE103AE26C3B449342D4BFA360A26079
:1015F0008AE7ACEB0B0383EAE37EAEEBE37E039377
:10160000E3699E4559D8D4F824E00398A36943437D
:10161000606900EB0C0ADA45DFF814A155D207EE39
:1016200090EA9FED427AF8EEE77A67EE877A07EE66
:10163000103AF1EE676AB8EEC77AB4EEE67AF1EEE8
:1016400010FA04D5FDEEE77A17EE903A5B42002BD4
:1016500050D0BE4244D1616C8A4201D3002B3FDAA4
:10166000039807EE902A02FB000006EE900A002B7A
:10167000B8EEE77BB8EEE66B2FDA94ED0E5BA5EEE5
:10168000067BBDEEC77B17EE102A236CA7609A423B
:10169000B8BF1A468A42D4BF626061602046CDF866
:1016A000009004ABD4E90121FFF7FEFD049B059DEA
:1016B000A3606560CAF8608026E7236A9E452CBF58
:1016C000D4F82CE0D4F828E09FE7ACEB000CDC4524
:1016D00010DD7345A8BF7346B9E794ED0C5BCEE708
:1016E0001F44BE4203DCE66CBE42A8BF3E46C4E9CE
:1016F0000126D3E7DAF8603098450AD02A4620461A
:10170000CDF8009004ABB8F1000FCDD1FFF720FE6B
:10171000CCE7A160CDE74FF0FF3007B0BDE8F08F18
:101720000000000000408F4040420F009A99593F4E
:1017300030BA02347BB972B90029BEBF00204FF025
:10174000004106E008BF00281CBF6FF000414FF0C9
:10175000FF3000F0C9B9ADF1080C6DE904CE0029E5
:1017600009DB002B1ADB00F04DF8DDF804E0DDE9C1
:10177000022304B07047404261EB4101002B1BDBA8
:1017800000F040F8DDF804E0DDE9022304B0404257
:1017900061EB4101524263EB43037047524263EBFA
:1017A000430300F02FF8DDF804E0DDE9022304B084
:1017B000404261EB41017047524263EB430300F04A
:1017C00021F8DDF804E0DDE9022304B0524263EBC6
:1017D0004303704753B94AB9002908BF00281CBF0A
:1017E0004FF0FF314FF0FF3000F07EB9ADF1080C43
:1017F0006DE904CE00F006F8DDF804E0DDE902232F
:1018000004B070472DE9F04F099D0C46002B4DD1D7
:101810008A420F4684469646B2FA82F360D94BB1AB
:1018200002FA03FEC3F120029F4000FA03FC20FAF3
:1018300002F217434FEA1E461FFA8EF44FEA1C428B
:10184000B7FBF6F106FB117701FB04F042EA074211
:10185000904208D91EEB020201F1FF3702D29042FA
:1018600000F22D813946121A1FFA8CFCB2FBF6F0F9
:1018700006FB102200FB04F44CEA024C644508D934
:101880001EEB0C0C00F1FF3202D2644500F21A810B
:10189000104640EA0140ACEB040C002125B12CFAC3
:1018A00003F30022C5E90032BDE8F08F8B4205D971
:1018B0000DB1C5E9000100210846F5E7B3FA83F14F
:1018C00000294DD1A342C0F0F280904280F0EF8019
:1018D000064623460846002DE6D0C5E90063E3E747
:1018E000002B40F0A2808A1A4FEA1E471FFA8EF69C
:1018F0000121B2FBF7F407FB14204FEA1C4242EA35
:10190000004206FB04F090420FD91EEB020204F1E4
:10191000FF382CBF4FF001094FF00009904203D966
:10192000B9F1000F00F0C8804446121A1FFA8CFC6F
:10193000B2FBF7F007FB102200FB06F64CEA024C64
:10194000664508D91EEB0C0C00F1FF3202D2664549
:1019500000F2BB801046ACEB060C40EA04409DE769
:10196000C1F120068B4004FA01FE22FA06F720FAA4
:1019700006FCF4408A401F434EEA0C0300FA01FEC5
:101980004FEA17484FEA13491FFA87FCB4FBF8F0F7
:1019900008FB104449EA044400FB0CF9A1450ED9A8
:1019A0003C1900F1FF3A2CBF4FF0010B4FF0000B38
:1019B000A14503D9BBF1000F00F093805046A4EB82
:1019C00009041FFA83F9B4FBF8F308FB134403FB83
:1019D0000CFC49EA0444A44506D93C1903F1FF383C
:1019E00001D2A4457AD8434643EA0040A4EB0C0454
:1019F000A0FB02984445CC46434602D306D1CE45CF
:101A000004D20138B9EB020C68EB07035DB1BEEB01
:101A10000C0264EB030404FA06F622FA01F3CC404C
:101A20001E43C5E9006400213EE702FA03FEC3F14C
:101A3000200104FA03F200FA03FCCC404FEA1E47EF
:101A400020FA01F11FFA8EF6B4FBF7F00A4307FB08
:101A50001044110C41EA044100FB06F48C420ED9FB
:101A60001EEB010100F1FF382CBF4FF001094FF0D0
:101A700000098C4202D9B9F1000F2CD04046091B55
:101A800092B2B1FBF7F407FB141142EA014204FBE6
:101A900006F1914207D91EEB020204F1FF3801D290
:101AA000914215D84446521A44EA004121E7861A69
:101AB00064EB030301200EE7023C724435E7023970
:101AC0007244D0E6F4440238E3E6F444023842E7D4
:101AD000023C7244E7E702387144D0E7023B3C44E1
:101AE00082E702383C446AE7704700BF044B82B08B
:101AF000C3F84C0AD3F84C320193019B02B07047F3
:101B000000800256044B82B0C3F88C0AD3F88C32A2
:101B10000193019B02B07047008002561FB500235D
:101B2000CDE902331E4B01A8019305F043FC1D4B88
:101B300001A8019305F03EFC1B4B01A8019305F0A1
:101B400039FC1A4B01A8019305F034FC4FF0004218
:101B5000174B0124C3F8202A03F58053C3F8202231
:101B60000220C3F860220421C3F8A0220822C3F88F
:101B70004C42C3F84C02C3F84C12C3F84C22C3F8D1
:101B80008C42C3F88C02C3F88C12C3F88C224FF439
:101B90008052C3F85422C3F8942204B010BD00BF91
:101BA000003102528031025200320252803202521F
:101BB0000080025640F2011307B500206946ADF8D7
:101BC00000300FF067FB00200FF054FA4FF4805202
:101BD000064B0748C3F8A02AD3F8A0320193019B13
:101BE00001F08AF803B05DF804FB00BF00800256E4
:101BF0000CA00134C84B2DE9F04FDA6BA3B042F4CE
:101C00008052DA63DA6B402542F01002DA63C34A8D
:101C100020261368012743F400531360FFF77EFF6B
:101C200006F032FE1022BE4BBE4CC3F84C224FF4DD
:101C30000032C3F84C62C3F84C52C3F874224FF41C
:101C40008032C3F87422C3F8587206F023FE236A68
:101C5000142223F440332362236A002123F04073CB
:101C6000236212A814F0B0F90423C4F85C3AD4F843
:101C70005C2221200692069A0022C4F89C3AD4F8ED
:101C80009C3211460593059BC4F85C5AD4F85C322B
:101C90000493049BC4F89C5AD4F89C320224039306
:101CA000039B01F0A5FC212001F000FD4FF4005240
:101CB0004FF488139C4812A9CDE91223149404F020
:101CC000D9F99A4812A9CDE91374129604F0D2F901
:101CD00001F02CFC964B5A6912F4003211D1BFF37B
:101CE0004F8FBFF36F8FC3F85022BFF34F8FBFF3F7
:101CF0006F8F5A6942F400325A61BFF34F8FBFF3BE
:101D00006F8F864A136843F480531360A2F57342C1
:101D1000536913F4803328D1C2F88430BFF34F8F56
:101D200043F6E074D2F88030C3F3C900C3F34E33F6
:101D30005B0100F1010E01464EF001E003EA0406EA
:101D400046EA8175C2F8605201390FF007C8203B9E
:101D500013F1200FEDD1BFF34F8F536943F480335C
:101D60005361BFF34F8FBFF36F8F01F0E3F900F0C2
:101D7000EFFA4FF400736B4D0324C5F8583AD5F8C9
:101D8000583201200793079B022312A9CDE9123490
:101D900005F0FAF9082012A905F0F6F9092012A9B0
:101DA00005F0F2F90A2012A905F0EEF90B2012A9AC
:101DB00005F0EAF921465F4805F03AFA21465E4807
:101DC00005F036FA21465D4805F032FA21465C48B6
:101DD00005F02EFA21465B4805F02AFA21465A48BA
:101DE00005F026FA2146594805F022FA4FF480639F
:101DF000C5F8583AD5F858220892089A484AC5F8C2
:101E0000183AC2F8183200F009FF00223821504D6C
:101E1000504B2C681860A0F13807234603FB0116CD
:101E2000BE590134002E40F01E8102B12B60052BFB
:101E300000F31B81484E002B03F101023446B8BF6A
:101E400001224649013A40F01681454800F04CFA1B
:101E500000244FF00109DFF8D48000222021404601
:101E600004F050FC212001F063FC2F2001F032FC33
:101E700001F092FB0121002006F012FD01F093FB1E
:101E800000F0F4FE01222021404604F03BFC00F06B
:101E9000CDFE344800F030FF10F01EF9324800F05B
:101EA0002BFF04211F4A314F80203C60C2F8BC1A2E
:101EB000D2F8BC320D930D9B4023C2F8BC3AD2F845
:101EC000BC320C930C9BFFF71DFE4FF48070FFF7A4
:101ED00019FE4FF40070FFF715FEC2F8A49AD2F86D
:101EE000A43223480B930B9B4FF40013C2F8A43A7F
:101EF000D2F8A4320A930A9B4FF48003C2F8A43AA2
:101F0000D2F8A4320993099B10F046F9194800F061
:101F1000F3FE01F041FB2FE00048025600E001E033
:101F20000090025600800256000802560018025621
:101F300000ED00E00A000030050000301C00002029
:101F40001D000020060000300700003008000030AF
:101F500058BB02345CBB023494BA0234A8BA0234CF
:101F60008007053449A0013459A0013464BB023410
:101F700080BB023462A001343868002800F08A80F7
:101F800001F011FB9F4800F0B7FE10F019F99E48D0
:101F900000F0B2FE10F0EEF89C4800F0ADFE01F04B
:101FA000B3F801F08DF801F0C2F84FF4805201202F
:101FB000FFF7A8FD0220FFF7A5FD0420FFF7A2FD13
:101FC0000820FFF79FFD0120FFF790FD0220FFF79B
:101FD0008DFD0420FFF78AFD0820FFF787FD8C4B5D
:101FE000DFF888B2C3F8542AD3F8541212A80F911C
:101FF0000F99C3F8942AD3F894120E910E99C3F84E
:10200000142A03F17C43CBF81422A3F59E431293C8
:10201000CDE9134405F090F97E4B12A8129305F018
:102020008BF97D4B12A8129305F086F97B4B12A811
:10203000129305F081F900F0FFFC00F00DFDFFF7B1
:10204000B9FD00F0E7FD764B76491860D0E9023221
:102050000020D21A00F072FD0746F8B140F2A91133
:10206000714B724A04E00122D7E6D121704B714ACC
:10207000714812F0B3FF077D436807B11B6887689A
:1020800038303B4441F8043B50F82C3CDB1B44F80F
:10209000043BD7E6012106F003FC6DE7674800F03A
:1020A0002BFE01F079FA664812F0C6F901F07BFACE
:1020B000644800F021FE01F06FFA614812F0BCF9AB
:1020C00001F071FA604800F017FE01F013F838468D
:1020D0000FF00CF84FF4005340223946CBF8603231
:1020E00012A813F071FF12A807F0DAFC12A800F092
:1020F00087FF2968554B564A564800F00FF9564855
:1021000000F0FAFD00F0A6FDB446384653492B68AE
:10211000984235DB102712A800F0A2FF3C4A4FF08E
:10212000600BC2F86C7AD2F86C124D48119111997B
:10213000C2F85C7AD2F85C2212A91092109A02229C
:10214000CDE9132915920722CDF848B0169203F075
:1021500091FF4FF4E132DFF818A1424B5046CAE933
:1021600000320C22CAE904424FF40042CAE9024498
:10217000CAF81840CAF81C200DF0B2F838B3FEE7D0
:102180005CF8042B002A20DD324B53F8203003F09A
:102190001F0A9244BFF34F8FDA4303EB0A0E7244D7
:1021A000AAF1200A52091AF1200F02F1010ED8BF3C
:1021B0004FF0010E4EF001E0C1F85C3220330FF019
:1021C00005C8BFF34F8FBFF36F8F01309FE70190BA
:1021D00000F0E6FD019A2021234804F093FAFFF76E
:1021E0009DFC00F03FFC00F031FC50460CF062FC1E
:1021F00059461B4804F058F91C4AC2F86C72C2F8E0
:102200005C722AE671A001347CA0013487A00134FD
:102210000080025680310252003202528032025255
:1022200060BB023480BB023496A0013401A10134AA
:102230001BA001340EA101343EA00134B5A001342D
:102240006CB40234CDA00134E4A00134800705341D
:1022500050BB0234A8BA0234F1A0013400ED00E012
:10226000001002560010005200180256009002564C
:10227000BCBA0234FEE7000010B514464FF0FF333D
:1022800092B202480CF07AFF204610BDBCBA02346C
:1022900000BEFEE70120704708B514F0D9F81623F8
:1022A00003604FF0FF3008BD08B514F0D1F81623D5
:1022B0000360FEE770B50D4614460E46731B9C4244
:1022C00001DC204670BDAFF3008006F8010BF5E796
:1022D0004FF0FF3070474FF4005300204B607047C1
:1022E0000120704700207047094A05218261094A90
:1022F000C2610122C0E900210722C0E90222312285
:102300000261054A02620A22426100F0F7B900BF89
:102310009A99193F9A99993E28A2013413B50C460F
:10232000012C11461A4605D02C21064B064A0748B7
:1023300012F054FE036801A8019300F0E3F902B023
:1023400010BD00BFC8A1013413A20134D6A10134CD
:102350001FB5154B7C2101AA02A802930DF074FE53
:102360000346E0B9019A02F4C031B1F5C03F17D07D
:1023700042F4C0327C2102A801920DF081FE68B9BE
:102380007C2101AA02A80DF05FFE30B9019B03F485
:10239000C033B3F5C03F03D0FEE7FEE7FEE7FEE73C
:1023A00005B05DF804FB00BF009000560C4B1B68A5
:1023B000053300EB830001EB8301D0ED007A91ED52
:1023C000007A77EEC77AF5EEC07AF1EE10FA04D40F
:1023D000CCBF4FF0FF30002070470120704700BF96
:1023E000A80705342DE9F04FD0F800900C46CA46F6
:1023F00000270D6885B005354FEA85082368BB4284
:1024000003DC002005B0BDE8F08F2B4B48461F6071
:1024100042462A4B616A12F038FE56460020626A34
:102420006A43824208DC002350461E469A4230DA54
:1024300001370AF1040AE1E7D6ED057AF5EE407AB4
:10244000F1EE10FA05EB0002464401D11046E6E732
:102450009346334609EB8000616A69435945F5DDCF
:1024600009EB8B01CDE90232019000F0FFF9DDE9C3
:102470000103D4ED077AB4EEE70AF1EE10FAC8BF13
:10248000DFED0F7A039AC8BFC3ED057AAB4443442E
:10249000E2E76169B1420ADDD0ED057AF5EE407AF6
:1024A000F1EE10FA03D001362B444044BEE7DFEDD5
:1024B000047AC0ED057AF7E7A8070534AD230034A8
:1024C000000000002DE9F74F0B6817680D4616460F
:1024D0000468053703B90C604FF000094FF0180B82
:1024E000C8464FEA870A1434736A7B434B4505DCC0
:1024F0000020C5F8048003B0BDE8F08F6A4620468E
:10250000316801AB00F0CEF9DDED007A96ED067A88
:10251000B4EEE77AF1EE10FA14D82B6854F8142CC4
:102520000BFB08331A6054F8102C08F101085A60AC
:1025300054F80C2C9A6054F8082CC3ED047ADA6035
:10254000019A5A61B9445444CEE72DE9F04F2DED7C
:10255000048B8BB0D1ED027AB7EE007AF8EEE77A11
:10256000C7EE278AD1ED037A0025F8EEE77A00233B
:102570000C4687EE279A2E46AA4600AF3B620B68B0
:10258000BD615A1D9B003A61DA1D22F00702ADEBD6
:10259000020D02681433C7F80CD07A61BB60A368DF
:1025A000AB4200F3A7800020BB692C376362BD46B5
:1025B000BDEC048BBDE8F08F1BED010A00F0B7F80D
:1025C0005946FB6822680BED010A584600F0BCF83A
:1025D00021685A46002901F10103B8BF0123013BDC
:1025E0007AD1584607F1240307F1200200F05AF986
:1025F00094ED067AD7ED087AB4EEE77AF1EE10FAA8
:1026000051D879690AF1040301EB830821685BF86A
:10261000042C43460029C8F80020DC4601F10102E1
:10262000B8BF01220433013A5FD11BED050A00F067
:102630007EF8D7ED077AF8EEE77A77EE807A67EEE4
:10264000A87A48ED047A1BED040A00F070F807EE52
:10265000905AF8EEE77A77EE807A67EE897A48ED5D
:10266000037A236A1BED030A03EBC90393ED008A87
:102670007B6016F089F928EE008A28EE288A08ED9A
:10268000028A7B681BED020A93ED018A16F07CF941
:1026900028EE008A28EE098A08ED018A3B699A44EF
:1026A000BB690133BB61BB6809F101099B443B690C
:1026B0001E4463684B453FF77FAFFB69053E01331E
:1026C000FB61FA69E368934216DD7B6905364FF0DA
:1026D000000903EB860BECE792ED007A5BED017AE3
:1026E00067EE877AE2EC017A79E75CF8041B43F83D
:1026F000041B98E70023E3E7013550E70346002079
:102700005862704770B50E46114605461446FFF7ED
:102710001CFF58B921462846FFF764FE30B922460F
:1027200031462846BDE87040FFF7CCBE70BD08B505
:10273000B1EE400A16F028F9F7EE007A30EE270ADB
:1027400087EE800A08BD00002DE9F0470F462DED09
:10275000028B14461D46064698469A464FF00009DD
:102760009FED148AA14513DBF7EE007A002C04F1EB
:10277000010287EE887AB8BF0122013A13D1BDEC7D
:10278000028B29463846A200BDE8F04713F0A3BEED
:10279000B6EC010A16F0F8F809F10109AAEC010AF1
:1027A00038EE008ADEE7D8ED007A67EE877AE8EC4B
:1027B000017AE2E700000000F6EE007A60EEA70A78
:1027C00061EEA71A30EE607A71EE617A70EE800ADF
:1027D000B4EE677A31EE811AF1EE10FAF4EE410AA6
:1027E00077FE277AF1EE10FA48BFB0EE601A31EEAC
:1027F000670A7047D1ED021A91ED001AD0ED020A76
:1028000090ED000A08B5FFF7D7FFB5EEC00AF1EE6C
:1028100010FAF0EE406A11D4D1ED031A91ED011ACD
:10282000D0ED030A90ED010AFFF7C6FFB5EEC00A2E
:10283000F1EE10FA02D426EE800A08BD9FED010ADF
:10284000FBE700BF0000000010B5FFF7D3FF91EDDC
:10285000037AD1ED027AD0ED026A67EE877A90EDC5
:10286000037AE6EE877A37EEC00A10BD08B5FFF7A7
:10287000C1FFB5EE400AF1EE10FAB0EE406A0BD09F
:10288000FFF7E2FFB5EE400AF1EE10FAF0EE407A03
:1028900002D086EE270A08BD9FED010AFBE700BFC4
:1028A0000000000030B5002401251C6050F8044BE6
:1028B0000029146014BF0C462C46013C00D130BDE9
:1028C000F0EC017A92ED007AF4EEC77AF1EE10FAAC
:1028D000C4BFC2ED007A1D600135EEE77047FEE728
:1028E000FEE7FEE7FEE7FEE77047FEE7FEE700F0E3
:1028F0002FBE08B50DF044FFBDE8084001F030BD23
:1029000008B50DF03DFFBDE8084001F0F3BB4FF402
:10291000005003F013BF000030B5134D6B69DB03AB
:102920001FD50A1A002A1CDD00F01F031A44BFF34A
:102930004F8F8418C2431B1A0B442244203B520978
:10294000203302F1010ED8BF4FF0010E4EF001E02E
:10295000C5F85C0220300FF005C8BFF34F8FBFF3FE
:102960006F8F002030BD00BF00ED00E030B5134D8B
:102970006B69DB031FD50A1A002A1CDD00F01F0358
:102980001A44BFF34F8F8418C2431B1A0B442244CE
:10299000203B5209203302F1010ED8BF4FF0010E47
:1029A0004EF001E0C5F8680220300FF005C8BFF313
:1029B0004F8FBFF36F8F002030BD00BF00ED00E0F0
:1029C0004FF48062114B84B0C3F84C2AD3F84C12F8
:1029D00003910399C3F88C2AD3F88C220292029AAD
:1029E0004FF08042C3F8602AD3F860120191019938
:1029F000C3F8A02AD3F8A01200910099C3F8202AA6
:102A000003F58053C3F8202204B0704700800256BB
:102A10004FF080424FF48061064BC3F8202A03F543
:102A20008053C3F84C12C3F88C12C3F86022C3F869
:102A3000A0227047008002560248034B036005F055
:102A40003FBE00BFAC07053400FC0D58014805F03F
:102A5000E9BE00BFAC070534014805F0FDBD00BF6D
:102A6000AC070534014805F04FBE00BFAC07053484
:102A70000A1A0146014805F081BE00BFAC070534C3
:102A800030B5264DAFB029462548FFF745FFB422A3
:102A9000002101A813F098FAD22440F2BE51072277
:102AA0002A231E20CDE90614CDE90222CDE90D220C
:102AB0008DF804300A910123119178224FF452715C
:102AC000CDE90403CDE90803CDE90F03CDE91212E6
:102AD000042041F2F862134CCDE9140202F1E24203
:102AE000A2F5FB120B94A2F648520F4C219201A8BA
:102AF00010328DF830308DF85C301C938DF88830B2
:102B000027932C928DF8B430169412F009F92946C7
:102B10002046FFF72BFF2FB030BD00BF00172E342B
:102B2000E0162E34C0672E3400002E3401490248CE
:102B3000FFF7F2BE806D2E34C0672E3440B911F01D
:102B40001F0007D1B2F5133F06D3044B196070473D
:102B500003207047012070470220704718BD0534DC
:102B600010B9024B186870470020704718BD053433
:102B7000032070470020704700220E4B13B50E490A
:102B80000E481A60FFF774FF42F656530B490C4883
:102B900001AA019312F060F9044640B1084812F00E
:102BA000A5F9084B044918600448FFF7DFFE2046EA
:102BB00002B010BDB807053418BD0534C007053490
:102BC00000AF0134BC07053413B50B490B48FFF7C0
:102BD0004FFF0B4B0B4800930B4B00221B68074920
:102BE000006812F097F9044618B103490348FFF74B
:102BF000BDFE204602B010BD18BD0534C007053427
:102C0000B8070534BC07053418BD053400487047C3
:102C100098AE01340048704728AE01340048704730
:102C200090AD01340048704788A70134064A136804
:102C300023B901211160054A126853620022044B36
:102C400002481A6004F0F6BB20BD0534D0D7053425
:102C50001CBD053408B5034804F0EAFC0022024B11
:102C60001A6008BDD0D7053420BD0534102210B538
:102C700088B000210DEB020013F0A6F9002301211A
:102C8000CDE90133194A0393C2F8641AD2F86422D9
:102C90004FF0A0410092009A40F28F12144CC4E908
:102CA00000124FF0FF322046C4E90323A360A36162
:102CB00004F03CFE00B1FEE74FF48053204604A927
:102CC000049304F069FF00B1FEE70190039001A9AD
:102CD000204605F077FB014600B1FEE741F6902261
:102CE000044808B0BDE8104013F06EB900800256E9
:102CF000D0D7053440BD053470B5224C2168632916
:102D000005D9AF21204B214A214812F067F944220E
:102D1000204B4A431B68204D5E6AAB18A8501F4ADF
:102D20005E60D2F8400201319860D2F84802D86063
:102D3000D2F84C021861D2F850025861D2F854020D
:102D40009861D2F85802D861D2F85C021862D2F8C1
:102D500060025862D2F864029862D2F86802D862BF
:102D6000D2F86C021863D2F870025863D2F8740279
:102D70009863D2F87802D863D2F87C2221601A6472
:102D800070BD00BF1CBD053498640234A2650234D6
:102D9000B3640234D0D7053440BD053400800256F8
:102DA000F0B500258FB0FFF755FF224B224C234E84
:102DB000234F1D6033684434AB4207D82149224871
:102DC00012F0BAFF002333600FB0F0BD54F8043C9A
:102DD00038460D9354F8083C01350C9354F80C3CDC
:102DE0000B9354F8103C0A9354F8143C099354F88C
:102DF000183C089354F81C3C079354F8203C069365
:102E000054F8243C059354F8283C049354F82C3C83
:102E1000039354F8303C029354F8343C019354F833
:102E2000383C009354F8441C54E9102312F084FFFA
:102E3000C0E700BF20BD053440BD05341CBD0534CE
:102E4000C7640234E09D01349D65023430B5012031
:102E5000ADF51B7D0DF080F90A2000F08BFB4022C0
:102E60000021684613F0B0F89022002112A813F058
:102E7000ABF84FF4C872002136A813F0A5F801246E
:102E80001023CDE910430823022513934FF000537C
:102E9000CDE91A5303231C93322310A8CDE91E3425
:102EA000CDE92044289405F059FF30B14FF4DD718D
:102EB0001D4B1E4A1E4812F091F87F234FF44032FA
:102EC00000934FF04073CDE90123C823CDE90D30C5
:102ED0000F934FF48013CDE90804CDE90A05CDE93D
:102EE0000330CDE905000C900790684606F038FBEA
:102EF00020B140F2E1110C4B0C4ADBE70D4B0022F4
:102F000061934FF44003CDE936230B4B36A862930F
:102F100006F028FF20B14FF4F771034B034AC9E7CD
:102F20000DF51B7D30BD00BFB4650234D56502349C
:102F3000C2650234140000031404000330B5A7B0C6
:102F4000982204460021684613F03EF84FF00053E3
:102F50000222CDE911230623012513937D23684620
:102F6000CDE91535179505F0F9FE28B1D521094BA6
:102F7000094A0A4812F032F84FF080532046C4E95B
:102F80000C3506F0EDFA18B1DC21024B024AF0E7ED
:102F900027B030BDB46502345B660234C2650234CA
:102FA00070B5A6B0044698220021684613F00CF8CC
:102FB0004FF000560223CDE91836042301251A9359
:102FC0004B236846CDE91C351E9505F0C7FE28B198
:102FD000F221084B084A094812F000F82046C4E9DB
:102FE0000E6506F0BDFA18B1F921024B024AF2E76C
:102FF00026B070BDB465023438660234C26502344E
:1030000010B5A6B0044698220021684612F0DCFFF5
:10301000C8230022C4E90C23022323604FF040732D
:103020002046A36006F09CFA30B140F20B11094B28
:10303000094A0A4811F0D2FF01236846119305F0AE
:103040008DFE20B140F20F11024B034AF1E726B08A
:1030500010BD00BFB46502341B660234C265023481
:1030600010B5A6B0044698220021684612F0ACFFC5
:10307000C8230022C4E90E23022323604FF04073CB
:103080002046A36006F06CFA30B14FF49071094B02
:10309000094A0A4811F0A2FF01236846189305F077
:1030A0005DFE20B14FF49271024B034AF1E726B066
:1030B00010BD00BFB4650234F8650234C265023445
:1030C0004FF000420A4B82B0C3F8602AD3F8601276
:1030D00001910199C3F8A02AD3F8A0120091009998
:1030E000C3F8202A03F58053C3F8202202B07047AA
:1030F000008002564FF00042024BC3F86022C3F832
:10310000A02270470090025600B591B040220021E5
:10311000684612F059FF684606F0C2FC6846FFF7A1
:103120000DFF6846FFF73CFF11B05DF804FB7047E8
:1031300070477047FFF78ABE00B5E5B04FF4C8721C
:103140000021684612F040FF00231022CDE9002341
:103150004FF40013329303236846239306F002FED4
:1031600048B900230822CDE900232823249068468B
:10317000259306F0F7FD65B05DF804FB444B454A26
:1031800070B501209A60022500224349434E01F5A3
:103190008054C1F8180AC4F81802C4F85802C3F8D9
:1031A000D820C3F8DC20C3F8E020C3F8D800C3F867
:1031B000DC20C3F8E020C3F8D8500325C3F8DC2096
:1031C000C3F8E020C3F8D8500425C3F8DC20C3F8C6
:1031D000E020C3F8D8500525C3F8DC20C3F8E02070
:1031E000C3F8D8500625C3F8DC20C3F8E020C3F8A4
:1031F000D8500725C3F8DC20C3F8E020C3F8D85026
:10320000C3F8DC20C3F8E020C1F8780AD1F87822AE
:103210009A683261224AD56B45F48055D563D56BE7
:1032200045F01005D563D26BD1F8742242F4004208
:10323000C1F87422D1F8782242F01002C1F8782245
:10324000D1F87822D1F8782222F01002C1F8782241
:103250004FF44052C1F8202AC4F820224022C1F87D
:10326000240AC4F82402C4F86402C4F85C22326957
:10327000C4F87802D3F8882042F47002C3F888209A
:10328000084AD2F8883043F47003C2F8883070BD21
:1032900000ED00E00004003400800256008000567B
:1032A0000048025600ED02E07B4BF0B51A6A02F4CA
:1032B0004012B2F5001F00F0D18008D8002A39D0A2
:1032C000B2F5801F3CD00022744B1A60F0BDB2F5FD
:1032D000401FF8D1D3F8C42002F04052B2F1805F11
:1032E00036D0B2F1005F44D0002A52D1D3F880200A
:1032F00012F0006402F0E04140F0B980D3F884009D
:10330000D3F88830C2F30B2520F07F400C46B4F18F
:10331000005FC3F3C266C2F30551C3F3026300F05A
:10332000948000F29D80002C47D0B4F1805F7CD067
:10333000002249E09B6C5A4AC3F3C113DA40C3E749
:103340005B6C584A13F4007F574B08BF1A46BBE723
:10335000D3F8902012F0006402F0E04140F0878042
:10336000D3F89400C2F30B25D3F8983020F07F40B7
:10337000CCE7D3F8A02012F0006402F0E04176D14F
:10338000D3F8A400C2F30B25D3F8A83020F07F4077
:10339000BCE7D3F8B02012F0006402F0E04166D13F
:1033A000D3F8B400C2F30B25D3F8B83020F07F4037
:1033B000ACE70B460E4608460D46374A976C384A2E
:1033C000C7F3C117FA403CBB07EE100AB8EEC76A54
:1033D00007EE105A07EE902ADFED346AB8EEC77A8E
:1033E000F8EEE77AA6EE267A67EE877A07EE101AED
:1033F000B8EEC77AC7EE876A07EE906AB8EEE77A4A
:1034000007EE903AF8EEE77A27EE277AC6EE877A4B
:10341000FCEEE77A17EE902A1F4BD3F8C430C3F3C3
:1034200007430133B2FBF3F24EE700241A4A1E4F62
:10343000526C12F4007F1B4A08BF3A46C3E70023D0
:103440001E4618461D461946F0E70024184ABAE7FA
:1034500000231E4618461D461946F7E7144A33E76F
:10346000B4F1405F7FF464AF0024124AABE7B1F1DE
:10347000005FEDD006D800299BD0B1F1805FDED08F
:103480000022C9E7B1F1405FFAD100231E46184679
:103490001D461946E9E700BF008002569CB402347D
:1034A0000090D0030024F40000093D0000008033A8
:1034B000006CDC020080BB006DED81CF00B5FFF732
:1034C000F3FE054B5DF804EB18689FEC100A9FE8CB
:1034D0000E90FDEC81CF74479CB40234704700001D
:1034E00038B50F4B05461A780AB9012038BD4FF49C
:1034F0007A73B3FBF2F30B4A1068B0FBF3F000F001
:1035000003F904460028F0D10F2DEED802462946D3
:103510004FF0FF3000F06CF8034B20461D60E5E7EC
:10352000A0B402349CB40234A4B4023410B5032015
:1035300000F040F8FFF7B8FE0F20FFF7D1FF044678
:1035400018B9FFF7CBFF204610BD0124FBE70000B0
:10355000034A044B11681B780B441360704700BF8B
:103560001CD80534A0B40234014B1868704700BF62
:103570001CD8053438B50446FFF7F6FF0546631C32
:103580001EBF044B1B78E418FFF7EEFF431BA3425A
:10359000FAD338BDA0B402344FF0E022136923F00F
:1035A0000203136170474FF0E022136943F00203F6
:1035B00013617047C31E042B10B5044603D9E621DE
:1035C0000948FEF765FE09492302CA6803F4E0636F
:1035D00022F4E0621204120C134343F0BF6343F47D
:1035E0000033CB6010BD00BF7A66023400ED00E00E
:1035F00010F10C0F2DE9F04105460C46174601DB92
:10360000031D03D1FF212648FEF742FE254BDE684D
:10361000C6F30226022E06D857B14FF48171204816
:10362000FEF736FE04E00123F21E9340BB42F4D9BC
:103630000F2CC6F1070804D8012303FA08F3A342AC
:1036400004D840F203111648FEF722FEB8F1040F29
:1036500006F1040328BF4FF004084FF0FF32062B99
:10366000A6F1030698BF002602FA08F824EA080328
:10367000B24027EA0207B340002D43EA0703ACBF7C
:1036800005F16045084A4FEA0313DBB2ABBF05F50D
:10369000614505F00F0585F800335355BDE8F0810D
:1036A0007A66023400ED00E014ED00E0002808DB4B
:1036B00001234109054A00F01F00834042F82130F0
:1036C000704740F215110248FEF7E2BD00E100E04C
:1036D0007A66023400280DDB01220949430900F013
:1036E0001F008240203341F82320BFF34F8FBFF3E8
:1036F0006F8F70474FF493710248FEF7C9BD00BF4A
:1037000000E100E07A6602340138B0F1807F0BD22C
:103710004FF0E023F021054A586182F82310002081
:10372000072298611A6170470120704700ED00E0A0
:10373000002809DB01224309064900F01F008240EE
:10374000603341F8232070474FF4D7710248FEF7E9
:103750009FBD00BF00E100E07A66023438B5044640
:10376000036869BBD3F8002522F00802C3F80025DE
:10377000FFF7FAFE0546FFF7F7FE401BB0F57A7F2C
:1037800001D9012038BD2368D3F8F4231204F2D400
:10379000D3F8C025D40342BFD3F8C02522F4803229
:1037A000C3F8C025D3F8042422F00042C3F804244F
:1037B000D3F8F02322F447420020C3F8F023E1E7D6
:1037C000012928D1D3F8002922F00802C3F80029E2
:1037D000FFF7CAFE0546FFF7C7FE401BB0F57A7F2C
:1037E000CFD82368D3F8F4231002F4D4D3F8C02937
:1037F000D10342BFD3F8C02922F48032C3F8C029D4
:10380000D3F8042822F00042C3F80428D3F8F023A8
:1038100022F40702D0E7D3F8002D22F00802C3F803
:10382000002DFFF7A1FE0546FFF79EFE401BB0F5F9
:103830007A7FA6D82368D3F8F423002AF4DBD3F8E0
:10384000042C22F00042C3F8042CD3F8C02DD2037C
:1038500042BFD3F8C02D22F48032C3F8C02DD3F874
:10386000F02322F00742A7E7F8B51446036871BBBE
:10387000D3F8042422F4C01242EAC442C3F8042458
:10388000234B022C1A6838D0032C39D0012C3AD1A2
:1038900042F040021A60FFF767FE4FF40036074619
:1038A0001B4DA640FFF760FEC01BB0F57A7F2DD8F8
:1038B000D5F8903036EA0303F4D14FF48853002052
:1038C000D5F88020A3401343C5F88030F8BD012906
:1038D000D3F8042806D122F4C01242EAC442C3F845
:1038E0000428CDE7520341BFD3F8042C22F4C012C0
:1038F00042EAC442C3F8042CC2E742F48062C9E73A
:1039000042F48042C6E742F00402C3E70120DDE74B
:1039100000600058012930B54FF00205046810D14D
:103920008571D4F800190B43C4F80039C4F8C429D0
:10393000D4F8F03343F4060343F02003C4F8F03323
:1039400030BD08444571D4F8001D0B43C4F8003D58
:10395000C4F8C42DD4F8F03343F00643ECE770B458
:1039600015461E4699B9022301684371D1F8002516
:103970003243C1F80025C1F8C455D1F8F03370BC0A
:1039800043F4064343F02003C1F8F033704770BCA2
:10399000FFF7C0BF022383710368D3F8042842F005
:1039A0000042C3F80428D3F8002942F00802C3F803
:1039B0000029704769B90368D3F8042442F0004233
:1039C000C3F80424D3F8002542F00802C3F8002508
:1039D0007047012901D1FFF7DDBF0368D3F8042C3C
:1039E00042F00042C3F8042CD3F8002D42F0080244
:1039F000C3F8002D70470000184B10B55A69C9B2C2
:103A000042F480325A611A6942F001021A615A691D
:103A100042F480325A6100221A615A615C695C6129
:103A20001C6944F001041C611A615C6944F480342F
:103A30005C611C6944F001041C615C69044344F44A
:103A400080345C611A615A6158690143596119698E
:103A500041F0010119611A6110BD00BF00700058EA
:103A600010B50446D8B103680E4A934208D002F15B
:103A70007042934204D04FF4A7710B48FEF708FC44
:103A8000237913B920460DF0C1F8032300202371D8
:103A900001236071A071E071A060237110BD01204D
:103AA000FCE700BF00200058C266023438B5054666
:103AB00038B300240368D3F80422D20755BFD3F8E3
:103AC0000421D3F8042222F4804222F0010254BFE0
:103AD000C3F80421C3F80422C3F80444C3F804481B
:103AE000C3F8044C084B5C601A6822F001021A60AB
:103AF0000DF0C8F82046AC602C716C71AC71EC71A3
:103B000038BD0120FCE700BF006000582DE9F041FE
:103B10000546FEB00C464FF4FC726846544912F05C
:103B2000DAFC1DB901207EB0BDE8F081002CF9D08F
:103B30002B68504A934208D002F17042934204D05D
:103B400040F28B214C48FEF7A3FB2368B3F5807F3E
:103B500007D0B3F5007F04D04FF423714648FEF739
:103B600097FB6368013B012B04D940F28D21424849
:103B7000FEF78EFBA3683E2B04D940F28E213E480F
:103B8000FEF786FB3D4B1A6822F001021A6061685D
:103B900001291AD1226842F404121A671A6842F005
:103BA00001021A60D3F8802042F0B04242F40412BD
:103BB000C3F880202268B2F5807FD3F8842054D1E6
:103BC000012908D142F01F0207E00229AAD1226888
:103BD00042F49012E1E742F4F8520026284DC3F86F
:103BE00084202B68254F23F002032B607E602B6915
:103BF000012043F001032B61FFF7BCFC2E61D4F8D8
:103C00000880AB685DF8382023F4FE4343EA0223C2
:103C100043F02803AB60382108201602FFF7ECFEC2
:103C20001121E420FFF7E8FE0DEBC803D3F8048070
:103C3000E3204FEA182146F48036FFF7DDFE46F018
:103C40002806E3205FFA88F1FFF7D6FEAE6023680E
:103C50000020B3F5807F0CBF07230F237B602B6808
:103C600043F002032B6068605DE742F4F852A9E775
:103C7000009E013400200058C266023400600058E3
:103C80000070005870B50D461446064608B901206C
:103C900070BD002AFBD00368524A934208D002F15B
:103CA0007042934204D04FF444714F48FEF7F0FA4B
:103CB000022D04D940F211314B48FEF7E9FA23688E
:103CC00033F4403304D040F212314748FEF7E0FAB3
:103CD000022D23681ED033F4403304D040F2163155
:103CE0004148FEF7D5FA2368B3F5803F02D0B3F51B
:103CF000003F0FD1A368222B0CD0183B152B04D802
:103D00003A4A22FA03F3DA0704D440F21B31364868
:103D1000FEF7BEFA2368B3F5403F0FD06368222B4D
:103D20000CD0183B152B04D8304A22FA03F3DB07DA
:103D300004D440F221312C48FEF7AAFA3379013B32
:103D4000012B2ED82268B2F5403F45D0B2F5003F96
:103D50002BD1002D9BD113466168B2F5803F43EA19
:103D60000103316802D0B2F5003F04D1022D2BD0FF
:103D7000A26843EA0223EDB931681D4AD1F8040470
:103D800002401A43C1F804243368D3F8042122F412
:103D90008042C3F80421D3F8042242F00102C3F8A0
:103DA000042202230020337172E7022D14BF134650
:103DB0000023D1E7012D07D1D1F804080C4A0240B5
:103DC0001A43C1F80428DFE7D1F8042C22F03F029F
:103DD0001343C1F8043CD7E7002D7FF458AF1346D6
:103DE000CAE700BF00200058C2660234C31B3C0073
:103DF000C0C0FCFF032970B506460D46144604D921
:103E00004FF472711548FEF743FA062C04D940F2BC
:103E1000C9311248FEF73CFAF6B1032D08D8DFE8A5
:103E200005F002090F150E4B240244F001041C6139
:103E3000002070BD0A4B240244F001041C62F7E725
:103E4000074B240244F001041C63F1E7044B2402F5
:103E500044F001041C64EBE70120EAE7C266023487
:103E600000600058F8B50D461446064608B9012012
:103E7000F8BD002AFBD00368474A934208D002F1FC
:103E80007042934204D040F202414448FEF700FAE7
:103E9000022D04D940F203414048FEF7F9F92368A6
:103EA000032B04D940F204413C48FEF7F1F9BDB9B7
:103EB000711948793379C0B2022BDAB2D7D110F038
:103EC000FB00D4D14A713368276815BBD3F80025AD
:103ED00022F003023A43C3F8002501234B71C7E7E0
:103EE000A368092B04D940F207412C48FEF7D0F90A
:103EF00063681A0702D1B3F5004F04D34FF4816110
:103F00002648FEF7C5F9022DD2D1A368062BCFD9DA
:103F1000ADE7012DD4E9014626D1D3F80029204D83
:103F200022F003023A43C3F80029D3F8C02922F053
:103F30000F023243C3F8C029D3F8CC292A402243C8
:103F4000C3F8CC29F21F012A06D8D3F8DC292A406D
:103F50002243C3F8DC29C0E7092EBED1D3F8DC29FF
:103F60002A4042EA5402F4E7D3F8002D22F003027B
:103F70003A43C3F8002DD3F8C02D22F00F0232438C
:103F8000C3F8C02DD3F8CC2D22F4FF4222F07F02DB
:103F90002243C3F8CC2DA0E700200058C2660234AB
:103FA0000080FFFF2DE9F041022904460D46164628
:103FB0001F46DDF8188004D94FF4C2611A48FEF795
:103FC00067F9032E04D940F211611748FEF760F932
:103FD00038F0040304D040F212611348FEF758F998
:103FE0001CB901263046BDE8F0813A07F9D12368B3
:103FF0006219D3F804325279012AF2D1DB07F0D5E5
:10400000324629462046FFF72FFC06460028E8D115
:104010002946204643463A46FFF7A1FC294620465A
:10402000FFF7C8FCDEE700BFC266023402292DE9B3
:10403000F84305460E46144604D94FF4CD6129488D
:10404000FEF726F9032C04D940F269612548FEF7F2
:104050001FF91DB901252846BDE8F8832B68D3F860
:104060000432DB07F6D5AF197B79002BF2D0284656
:104070003146FFF773FB05460028EBD11A4B022CA3
:104080001A6826D0032C27D0012C28D142F08002B8
:104090001A60FFF769FA4FF400388146124E08FAA9
:1040A00004F8FFF761FAA0EB0900B0F57A7FD1D8E8
:1040B000D6F8903038EA0303F3D04FF48852D6F89C
:1040C0008030A24023EA0203C6F8803001237B71CE
:1040D000C1E742F40062DBE742F40042D8E742F075
:1040E0000802D5E7C2660234006000587047704786
:1040F00070477047036870B5D3F8F86304467204DC
:10410000D3F8F05312D5690410D5D3F8F023002169
:1041100022F48042C3F8F023826842F004028260F5
:104120004FF48042C3F8FC23FFF7E1FF72050AD584
:104130006B0508D54FF48062236800212046C3F840
:10414000FC230CF043FDB00516D5A90514D5236852
:10415000D3F80025520707D5D3F8F02322F40642FE
:10416000C3F8F023012262714FF40072002120464F
:10417000C3F8FC230CF03AFDF3050AD5E80508D591
:104180004FF48072236800212046C3F8FC23FFF718
:10419000ADFF310416D52A0414D523680021D3F8C5
:1041A000F023204622F40042C3F8F023A26842F034
:1041B0000802A2604FF40042C3F8FC230423637199
:1041C000FFF796FFF3030AD5E80308D54FF48032D2
:1041D000236801212046C3F8FC23FFF787FF710302
:1041E0000AD56A0308D54FF48022236801212046AE
:1041F000C3F8FC230CF0EAFCB30316D5A80314D5CE
:104200002368D3F80029510707D5D3F8F02322F407
:104210000602C3F8F0230122A2714FF400320121FB
:104220002046C3F8FC230CF0E1FC320216D52B0229
:1042300014D523680121D3F8F023204622F400028C
:10424000C3F8F023A26842F01002A2604FF400020B
:10425000C3F8FC230423A371FFF74AFFF0010AD53A
:10426000E90108D54FF08072236802212046C3F887
:10427000FC23FFF73BFF72010AD56B0108D54FF015
:104280008062236802212046C3F8FC230CF09EFCC8
:10429000B00116D5A90114D52368D3F8002D520713
:1042A00007D5D3F8F02322F00642C3F8F023012209
:1042B000E2714FF0007202212046C3F8FC230CF09B
:1042C00095FC002E16DA002D14DA23680221D3F8AB
:1042D000F023204622F00042C3F8F023A26842F007
:1042E0002002A2604FF00042C3F8FC230423E371D4
:1042F000FFF7FEFE700614D5690612D52368204626
:10430000D3F8F02322F04002C3F8F023A26842F071
:104310000202A2604022C3F8FC2304232371FFF7AA
:10432000E8FEB20614D5AB0612D523682046D3F8B2
:10433000F02322F02002C3F8F023A26842F0010229
:10434000A2602022C3F8FC2304232371FFF7D1FECF
:1043500070BD70477047704770477047704770472F
:10436000B54B2DE9F041D3F890600446B202D3F882
:104370009480D3F88050D3F884700DD5A9020BD562
:10438000D3F8802022F40012C3F880204FF40012EA
:10439000C3F80021FFF7DEFF320715D52B0713D531
:1043A00023680321D3F80035204613F0040FA24BF5
:1043B0001EBFD3F8802022F00802C3F88020082214
:1043C000C3F80021FFF7CBFF700715D5690713D598
:1043D00023680221D3F80035204613F0040F964BD2
:1043E0001EBFD3F8802022F00402C3F880200422EC
:1043F000C3F80021FFF7B3FFB20715D5AB0713D5FC
:1044000023680121D3F80035204613F0040F8A4BAE
:104410001EBFD3F8802022F00202C3F880200222BF
:10442000C3F80021FFF79BFFF00715D5E90713D567
:1044300023680021D3F80035204613F0040F7E4B8B
:104440001EBFD3F8802022F00102C3F88020012291
:10445000C3F80021FFF783FF320416D52B0414D5CF
:1044600023680321D3F80035204613F0040F724B64
:104470001EBFD3F8802022F40042C3F880204FF4FE
:104480000042C3F80021FFF767FF700416D56904E6
:1044900014D523680221D3F80035204613F0040F09
:1044A000654B1EBFD3F8802022F48042C3F88020E1
:1044B0004FF48042C3F80021FFF74EFFB20416D537
:1044C000AB0414D523680121D3F80035204613F03E
:1044D000040F594B1EBFD3F8802022F40052C3F8BA
:1044E00080204FF40052C3F80021FFF735FFF0049D
:1044F00016D5E90414D523680021D3F800352046E9
:1045000013F0040F4C4B1EBFD3F8802022F48052CE
:10451000C3F880204FF48052C3F80021FFF71CFF3E
:10452000320516D52B0514D523680321D3F80035A1
:10453000204613F0040F404B1EBFD3F8802022F416
:104540000062C3F880204FF40062C3F80021FFF737
:1045500004FF700516D5690514D523680221D3F828
:104560000035204613F0040F334B1EBFD3F88020D4
:1045700022F48062C3F880204FF48062C3F80021E7
:10458000FFF7EBFEB20516D5AB0514D52368012164
:10459000D3F80035204613F0040F274B1EBFD3F885
:1045A000802022F40072C3F880204FF40072C3F818
:1045B0000021FFF7D2FEF00516D5E90514D52368D2
:1045C0000021D3F80035204613F0040F1A4B1EBF0C
:1045D000D3F8802022F48072C3F880204FF48072D8
:1045E000C3F80021FFF7B9FE320615D52B0613D507
:1045F00023680321D3F80035204613F0040F0E4B37
:104600001EBFD3F8802022F08002C3F880208022D1
:10461000C3F80021FFF7A2FE700619D5690617D569
:1046200023680221D3F80035204613F0040F024B13
:1046300018BFD3F8802001E0006000581CBF22F0B2
:104640004002C3F880204022C3F80021FFF786FE15
:10465000B20615D5AB0613D523680121D3F8003572
:10466000204613F0040FB94B1EBFD3F8802022F070
:104670002002C3F880202022C3F80021FFF76EFE3D
:10468000F00615D5E90613D523680021D3F80035C7
:10469000204613F0040FAD4B1EBFD3F8802022F04C
:1046A0001002C3F880201022C3F80021FFF756FE45
:1046B000720013D56B0011D5A44B2046D3F880208F
:1046C00022F08042C3F880204FF08042C3F80021DE
:1046D000A36843F48073A360FFF70BFDB00013D50C
:1046E000A90011D5994B2046D3F8802022F0005222
:1046F000C3F880204FF00052C3F80021A36843F4B0
:104700000073A360FFF7F5FCF20013D5EB0011D5A1
:104710008E4B2046D3F8802022F08052C3F88020B0
:104720004FF08052C3F80021A36843F48063A36074
:10473000FFF7DFFC300113D5290111D5834B20464B
:10474000D3F8802022F00062C3F880204FF000628E
:10475000C3F80021A36843F40063A360FFF7C9FC1A
:10476000720113D56B0111D5784B2046D3F8802008
:1047700022F08062C3F880204FF08062C3F80021ED
:10478000A36843F48053A360FFF7B3FCB00113D5D3
:10479000A90111D56D4B2046D3F8802022F000727C
:1047A000C3F880204FF00072C3F80021A36843F4DF
:1047B0000053A360FFF79DFCF20113D5EB0111D567
:1047C000624B2046D3F8802022F08072C3F880200C
:1047D0004FF08072C3F80021A36843F48043A360C4
:1047E000FFF787FC18F0010F14D0F80712D501214C
:1047F000564B2046D3F8802022F00102C3F88020D7
:10480000C3F80411A36843F40023A36004232371B5
:10481000FFF79FFD18F0020F15D0B90713D54B4BCA
:104820000121D3F88020204622F00202C3F8802024
:104830000222C3F80421A36843F48023A360042365
:104840002371FFF786FD18F0040F13D07A0711D5F6
:104850003E4B0121D3F88020204622F00402C3F809
:1048600080200422C3F80421A36843F40033A3602A
:10487000FFF76FFD18F0080F13D03B0711D5334B2E
:104880000121D3F88020204622F00802C3F88020BE
:104890000822C3F80421A36843F48033A360FFF720
:1048A00058FD18F0100F13D0F80611D5274B012131
:1048B000D3F88020204622F01002C3F88020102276
:1048C000C3F80421A36843F40043A360FFF741FD4C
:1048D00018F4807F16D0F90514D51C4B0221D3F8AB
:1048E0008020204622F48072C3F880204FF480722A
:1048F000C3F80421A36843F40023A36004232371B5
:10490000FFF727FD18F4007F16D0BA0514D50F4B1A
:104910000221D3F88020204622F40072C3F88020C0
:104920004FF40072C3F80421A36843F48023A3600A
:1049300004232371FFF70DFD18F4806F17D07B055A
:1049400015D5024B0221D3F8802001E00060005809
:10495000204622F48062C3F880204FF48062C3F8BE
:104960000421A36843F40033A360FFF7F2FC18F4BA
:10497000006F14D0380512D51F4B0221D3F88020C8
:10498000204622F40062C3F880204FF40062C3F88E
:104990000421A36843F48033A360FFF7DAFC18F422
:1049A000805F14D0F90412D5134B0221D3F8802074
:1049B000204622F48052C3F880204FF48052C3F87E
:1049C0000421A36843F40043A360FFF7C2FCF20391
:1049D0000FD5EB030DD5084B2046D3F8802022F4E9
:1049E0008032C3F880204FF48032C3F80021FFF7F3
:1049F000B2FCBDE8F08100BF0060005870B50E4603
:104A00001446054608B9012070BD002AFBD00229D2
:104A100004D940F6EF614A48FDF73AFC236933F0C8
:104A2000804304D04FF46F614548FDF731FC636863
:104A3000B3F5805F04D340F6F1614148FDF728FCEF
:104A400040F6FE72E368013B934204D940F6F261FE
:104A50003B48FDF71DFC40F6FE72A368013B934204
:104A600004D940F6F3613648FDF712FC2368B3F52C
:104A7000805F04D340F6F4613148FDF709FC2B79DF
:104A8000022BC0D13EBB2A682E4BD2F804110B403A
:104A9000B3F5804FB7D0D4E90003D2F8041543EA48
:104AA000004301F0F0210B43C2F80435D2F8081599
:104AB000D4E9033021F09F41034321F4FE01A068B3
:104AC00021F47F6143EA004321F00F010B43C2F858
:104AD0000835002098E7012E17D1D4E900032A6891
:104AE00043EA0043D2F8041901F0F0210B43C2F865
:104AF0000439D2F80819D4E9020301F0F02143EA9D
:104B000000430B43C2F80839E3E7022E7FF47BAF82
:104B1000D4E900032A6843EA0043D2F8041D01F0F7
:104B2000F0210B43C2F8043DD2F8081DD4E902037A
:104B300001F0F02143EA00430B43C2F8083DC8E707
:104B4000C26602340040FF00022938B505460C4613
:104B500004D940F63F711A48FDF79AFB6DB32B79E3
:104B6000022B2AD17CB92B68164AD3F804110A40CB
:104B7000B2F5804F21D0D3F8082542F00042C3F8A7
:104B80000825002038BD012C0DD12B682046D3F814
:104B90002028B2F5004FF5D0D3F8082942F00042A2
:104BA000C3F80829EDE7022C07D12A68D2F8083D9E
:104BB00043F00043C2F8083DE3E70120E2E700BF0D
:104BC000C26602340040FF00022908B506D940F64B
:104BD0007E711048FDF75CFB01200AE00028FBD045
:104BE000036839B9D3F8082522F00042C3F8082534
:104BF000002008BD01290BBFD3F80829D3F8082DE0
:104C000022F0004222F000420CBFC3F80829C3F88A
:104C1000082DEDE7C2660234022970B505460E463E
:104C2000144604D941F252011848FDF731FB2268BD
:104C300052B1182A03D8164BD340DA0704D441F2F4
:104C400053011248FDF724FB626852B1062A03D8CB
:104C50005423D340DB0704D441F254010B48FDF741
:104C600017FB8DB12B79022B0ED1012E0CD1D4E97B
:104C70000030034300202968D1F8302822F01E02BA
:104C80001343C1F8303870BD0120FCE7C26602341E
:104C900000010101022908B506D941F27A0109484B
:104CA000FDF7F6FA012008BD0028FBD00129F9D153
:104CB00002680020D2F8303843F00103C2F83038DF
:104CC000F1E700BFC266023470B50E4614460546D1
:104CD00008B9012070BD022904D941F2BC011E4867
:104CE000FDF7D6FA226852B1182A03D81B4BD340DD
:104CF000DA0704D441F2BD011748FDF7C9FA62682A
:104D000052B1062A03D85423D340DB0704D441F21E
:104D1000BE011148FDF7BCFA2B79022BD9D1012E27
:104D20000CD1D4E9003029680343D1F80C2922F0D2
:104D30001E021343C1F80C390020CBE7022EC8D164
:104D4000D4E9003029680343D1F80C2D22F01E026B
:104D50001343C1F80C3DEFE7C266023400010101C4
:104D600008B530B1022906D941F2E9010C48FDF736
:104D70008FFA012009E0012908D10268D2F80C3924
:104D800043F00103C2F80C39002008BD0229F0D11C
:104D90000268D2F80C3D43F00103C2F80C3DF3E782
:104DA000C266023408B530B1022906D941F20A11AF
:104DB0000C48FDF76DFA012009E0012908D10268CD
:104DC000D2F80C3923F00103C2F80C39002008BDD9
:104DD0000229F0D10268D2F80C3D23F00103C2F899
:104DE0000C3DF3E7C266023470B50E461446054624
:104DF00008B9012070BD002AFBD0022904D941F274
:104E000034113F48FDF744FA6369803BB3F5607F96
:104E100004D341F235113A48FDF73AFA2369803B51
:104E2000B3F5607F04D341F236113548FDF730FA0F
:104E3000E368B3F5803F04D341F237113048FDF702
:104E400027FAA368B3F5803F04D341F238112C4808
:104E5000FDF71EFA6368B3F5805F04D341F23911A0
:104E60002748FDF715FA2368B3F5805F04D341F2B4
:104E70003A112348FDF70CFA2B79022BB9D1012EF8
:104E80001ED1D4E904022B6842EA0042D3F810197B
:104E900001F0FC210A43C3F81029D4E9021242EAC6
:104EA0000142C3F81429D3F81819D4E9000201F01B
:104EB000F02142EA00420A43C3F81829002099E78A
:104EC000022E96D1D4E904022B6842EA0042D3F8BC
:104ED000101D01F0FC210A43C3F8102DD4E9021281
:104EE00042EA0142C3F8142DD3F8181DD4E9000298
:104EF00001F0F02142EA00420A43C3F8182DDDE731
:104F0000C266023408B530B1022906D941F27A11DD
:104F10000C48FDF7BDF9012009E0012908D102681C
:104F2000D2F8103943F00043C2F81039002008BD10
:104F30000229F0D10268D2F8103D43F00043C2F8D4
:104F4000103DF3E7C266023408B530B1022906D934
:104F500041F2BC110C48FDF79BF9012009E0012941
:104F600008D10268D2F8703943F00103C2F87039F1
:104F7000002008BD0229F0D10268D2F8703D43F04C
:104F80000103C2F8703DF3E7C266023408B530B1E0
:104F9000022906D941F2DD110C48FDF779F901200B
:104FA00009E0012908D10268D2F8703923F0010321
:104FB000C2F87039002008BD0229F0D10268D2F889
:104FC000703D23F00103C2F8703DF3E7C26602347E
:104FD00038B5134A0368044693420D4608D002F1DF
:104FE0007042934204D041F2F8110E48FDF750F997
:104FF000022D06D941F2F9110A48FDF749F90020BE
:1050000038BD012D05D12368D3F8700900F00100E7
:10501000F6E7022DF3D12368D3F8700DF6E700BF51
:1050200000200058C266023470B50E46144605468C
:1050300008B9012070BD002AFBD0022904D941F231
:105040001E212448FDF724F9A26852B1062A03D88C
:105050005423D340DB0704D441F21F211D48FDF740
:1050600017F9E368072B04D94FF491511948FDF75C
:105070000FF92368072B04D941F221211548FDF7C8
:1050800007F96368072B04D941F222211148FDF783
:10509000FFF82369072B04D941F223210D48FDF7BE
:1050A000F7F8012EC5D1D4E903231B0743EA0243D5
:1050B000A268296813432268D1F8700843EA0253B2
:1050C000626843EA0263044A024013430020C1F8C5
:1050D0007038AFE7C2660234F9FF888808B530B18E
:1050E000022906D941F24A210748FDF7D1F80120EB
:1050F00008BD0129FBD102680020D2F8703843F0C6
:105100000103C2F87038F3E7C266023408B530B163
:10511000022906D941F267210748FDF7B9F80120B5
:1051200008BD0129FBD102680020D2F8703823F0B5
:105130000103C2F87038F3E7C2660234F8B50F46CF
:1051400015461C46064608B90120F8BD022904D9B7
:1051500041F289211048FDF79BF8072D04D941F24F
:105160008A210D48FDF794F8B4F5805F04D341F22D
:105170008B210948FDF78CF8012FE5D1326844EA0C
:105180000534D2F82038002023F4FF4323F07F03B6
:105190001C43C2F82048D8E7C266023450B1012946
:1051A00008D102680020D2F8203843F40043C2F846
:1051B000203870470120704750B1012908D102689A
:1051C0000020D2F8203823F40043C2F8203870477A
:1051D0000120704770B50E461446054608B90120F7
:1051E00070BD022918D941F2EA210D48FDF750F8A7
:1051F000072CF4D941F2EB210948FDF749F8012EBB
:10520000EDD129680020D1F8243823F00E0343EAB9
:105210004403C1F82438E3E7072AF0D9EAE700BFDE
:10522000C266023408B530B1022906D941F208310C
:105230000748FDF72DF8012008BD0129FBD10268C0
:105240000020D2F8243843F00103C2F82438F3E7F1
:10525000C266023408B530B1022906D941F22531BF
:105260000748FDF715F8012008BD0129FBD10268A8
:105270000020D2F8243823F00103C2F82438F3E7E1
:10528000C2660234022910B5044604D941F23B310A
:105290000448FCF7FDFF2368D3F82408C0F342005C
:1052A00010BD00BFC266023438B5104A0368044618
:1052B00093420D4608D002F17042934204D041F26D
:1052C00048310B48FCF7E4FF022D06D941F2493181
:1052D0000748FCF7DDFF002038BD012DFBD1236816
:1052E000D3F8240800F00100F6E700BF00200058C2
:1052F000C266023438B51546044608B9012038BDE7
:10530000002AFBD0022904D941F266310648FCF795
:10531000BFFF2379022BF1D123680020D3F828386E
:10532000C3F30B032B60EAE7C266023470B50E4686
:105330001446054608B9012070BD002AFBD0022999
:1053400004D941F225419848FCF7A2FF2378012BAC
:1053500004D941F226419448FCF79AFF637813F090
:10536000FD0F04D041F227418F48FCF791FFB4F9BB
:105370000230B3F5006F04DB41F228418A48FCF7A4
:1053800087FFB4F90430B3F5006F04DB41F2294123
:105390008548FCF77DFFB4F90630B3F5006F04DBF8
:1053A00041F22A418048FCF773FFB4F90830B3F5A5
:1053B000006F04DB41F22B417B48FCF769FFB4F935
:1053C0000A30B3F5006F04DB41F22C417648FCF75C
:1053D0005FFFB4F90C30B3F5006F04DB41F22D41EF
:1053E0007148FCF755FFB4F90E30B3F5006F04DBDC
:1053F00041F22E416C48FCF74BFFB4F91030B3F585
:10540000006F04DB41F22F416748FCF741FFB4F91C
:105410001230B3F5006F04DB41F230416248FCF713
:1054200037FFB4F91430B3F5006F04DB41F23141BA
:105430005D48FCF72DFFB4F91630B3F5006F04DBBF
:1054400041F232415848FCF723FFB4F91830B3F564
:10545000006F04DB41F233415348FCF719FF012E82
:105460007FF469AF2B682078D3F88018627821F038
:10547000060142EA80020A43C3F88028B4F90220F8
:1054800090B2C2F30A01002AB4F90420B8BF08465A
:10549000C2F30A05002A91B2B8BF2946D3F884287E
:1054A00002F0F822024342EA0142C3F88428B4F928
:1054B000062095B2C2F30A01002AB4F90820B8BF49
:1054C0000D46C2F30901002A90B2B8BF0846D3F8CE
:1054D000882836490A402A4342EA0042C3F888280D
:1054E000B4F90C2095B2C2F30A00002AB4F90A20DC
:1054F000B8BF0546C2F30A06002A90B2B8BF3046CC
:10550000D3F88C2802F0F82242EA05420243C3F89D
:105510008C28B4F90E2095B2C2F30A00002AB4F91F
:105520001020B8BF0546C2F30906002A90B2B8BFE2
:105530003046D3F890280A402A4342EA0042C3F892
:105540009028B4F9122095B2C2F30A00002AB4F9E7
:105550001420B8BF0546C2F30A06002A90B2B8BFAD
:105560003046D3F8942802F0F8222A4342EA004257
:10557000C3F89428B4F91620C2F30A0095B2002AA1
:10558000B4F91820B8BF0546C2F30904002A90B246
:10559000B8BF2046D3F898280A402A4342EA00427E
:1055A000C3F898280020C7E6C266023400F800FC61
:1055B00008B530B1022906D941F27B410748FCF712
:1055C00067FE012008BD0129FBD102680020D2F846
:1055D000803843F00103C2F88038F3E7C266023432
:1055E00008B530B1022906D941F297410748FCF7C6
:1055F0004FFE012008BD0129FBD102680020D2F82E
:10560000803823F00103C2F88038F3E7C266023421
:1056100010B500B10AB9012010BD022905D941F227
:105620005B510B48FCF734FEF5E70129F3D1006824
:1056300053781478D0F8401892781B0443EA046336
:1056400043EA0223CAB21343C0F840380020E3E71C
:10565000C266023408B530B1022906D941F27A5146
:105660000748FCF715FE012008BD0129FBD102689F
:105670000020D2F8403843F00103C2F84038F3E785
:10568000C266023408B530B1022906D941F29651FA
:105690000748FCF7FDFD012008BD0129FBD1026888
:1056A0000020D2F8403823F00103C2F84038F3E775
:1056B000C2660234022904D941F2B0510748FCF70E
:1056C000E7BD012908D10368D3F84038190A917061
:1056D000190C1B0E51701370704700BFC266023464
:1056E00038B5104A0368044693420D4608D002F1CB
:1056F0007042934204D041F2C4510B48FCF7C8FDFC
:10570000022D06D941F2C5510748FCF7C1FD002022
:1057100038BD012DFBD12368D3F8400800F001000B
:10572000F6E700BF00200058C2660234F8B50F4605
:1057300015461C46064608B90120F8BD002BFBD0D3
:10574000022904D941F2E9512A48FCF7A1FD6B1E58
:10575000022B04D941F2EA512648FCF799FDA368CF
:105760006BB1043B082B05D840F2111222FA03F367
:10577000DB0704D441F2EB511E48FCF789FD636856
:1057800033F0300306D0402B04D041F2EC511948DD
:10579000FCF77EFD236833F0800304D041F2ED5125
:1057A0001448FCF775FD012FC6D1D4E9003213432C
:1057B000A268012D316843EA020309D0022D10D0FE
:1057C000D1F8582822F0FC021343C1F8583806E0FB
:1057D000D1F8502822F0FC021343C1F850380020C1
:1057E000ABE7D1F8542822F0FC021343C1F8543837
:1057F000F5E700BFC266023470B50E461446054692
:1058000008B9012070BD002AFBD0022904D941F259
:105810001F612148FCF73CFD6368B3F5805F04D34A
:105820004FF4B1511C48FCF733FD2368B3F5805F9A
:1058300004D341F221611848FCF72AFDE368B3F56F
:10584000805F04D341F222611348FCF721FDA36875
:10585000B3F5805F04D341F223610F48FCF718FDD4
:10586000012ECED1D4E900032A6843EA0043D2F8DE
:105870005C1801F0F0210B43C2F85C38D2F86018D4
:10588000D4E9020301F0F02143EA00430B43002076
:10589000C2F86038B6E700BFC266023470B50E4683
:1058A0001546044608B9012070BD022904D941F209
:1058B00047611548FCF7ECFC6B1E022B0ED941F238
:1058C00048611148FCF7E4FC012EECD12268D2F8C3
:1058D000583843F00103C2F8583813E0012EE2D1E2
:1058E000012D236808D0022DF0D1D3F8542842F0BE
:1058F0000102C3F8542805E0D3F8502842F0010211
:10590000C3F850280020CFE7C266023408B530B192
:10591000022906D941F29F610748FCF7B9FC012032
:1059200008BD0129FBD102680020D2F8603843F09D
:105930000043C2F86038F3E7C266023470B50E4621
:105940001446054608B9012070BD002AFBD0022983
:1059500004D941F2DB611D48FCF79AFC2378072B40
:1059600004D941F2DC611948FCF792FCA378072BBB
:1059700004D941F2DD611548FCF78AFC2379072B35
:1059800004D941F2DE611148FCF782FC012EDAD124
:1059900029686378D1F8442820781B0522F0FF425B
:1059A00043EA007322F4E0021343C1F84438E37879
:1059B000A2781B0543EA02732279002043EA0233EE
:1059C000627943EA0213C1F84838BDE7C26602347F
:1059D00008B530B1022906D941F201710748FCF738
:1059E00057FC012008BD0129FBD102680020D2F834
:1059F000443843F00103C2F84438F3E7C266023486
:105A000008B530B1022906D941F21D710748FCF7EB
:105A10003FFC012008BD0129FBD102680020D2F81B
:105A2000443823F00103C2F84438F3E7C266023475
:105A300070B50E461446054608B9012070BD002A0F
:105A4000FBD0022904D941F23B713948FCF720FC14
:105A500023783F2B04D941F23C713548FCF718FC00
:105A600063783F2B04D941F23D713148FCF710FCBB
:105A7000A3783F2B04D941F23E712D48FCF708FC76
:105A8000E3783F2B04D941F23F712948FCF700FC31
:105A900023793F2B04D94FF4BA512548FCF7F8FB82
:105AA00063793F2B04D941F241712148FCF7F0FBA7
:105AB000A3793F2B04D941F242711D48FCF7E8FB62
:105AC000E3793F2B04D941F243711948FCF7E0FB1D
:105AD000237A3F2B04D941F244711548FCF7D8FBD7
:105AE000012EAAD12A682178D2F8A038002023F408
:105AF000FC4343EA4123C2F8A038A37861785B04F1
:105B000043EA4163E17843EA4123217943EA4103CF
:105B1000C2F8A438A37961795B0443EA4163E1796F
:105B200043EA4123217A43EA4103C2F8A83885E7D2
:105B3000C266023408B530B1022906D941F26C714F
:105B40000748FCF7A5FB012008BD0129FBD102682D
:105B50000020D2F8A03843F00103C2F8A038F3E7E0
:105B6000C266023408B530B1022906D941F2887103
:105B70000748FCF78DFB012008BD0129FBD1026815
:105B80000020D2F8A03823F00103C2F8A038F3E7D0
:105B9000C266023470B50E461446054608B90120A7
:105BA00070BD022904D941F2D2711448FCF770FB90
:105BB000230702D1B4F5004F04D341F2D3710F484B
:105BC000FCF766FB012E0BD12A68D2F8CC3923F4FE
:105BD000FF4323F07F032343C2F8CC390020DFE7E3
:105BE000022EDCD12A68D2F8CC3D23F4FF4323F007
:105BF0007F032343C2F8CC3DF0E700BFC266023406
:105C000070B50E461446054608B9012070BD02293C
:105C100017D941F2F6711248FCF73AFB092CF4D976
:105C200041F2F7710E48FCF733FB012E0CD12A68C4
:105C3000D2F8C03923F00F032343C2F8C039002043
:105C4000E4E7092AF1D9EBE7022EDED12A68D2F87F
:105C5000C03D23F00F032343C2F8C03DEFE700BF70
:105C6000C2660234022938B504460D4604D941F60D
:105C700039110F48FCF70CFBBCB12379022B08D17A
:105C8000012D08D12268D2F8C03943F01003C2F8C0
:105C9000C039002038BD022D07D12268D2F8C03D9E
:105CA00043F01003C2F8C03DF3E70120F2E700BF64
:105CB000C2660234022938B504460D4604D941F6BD
