:0200000470107A
:1000000053544D32000000000000000000000000CA
:1000100000000000000000000000000000000000E0
:1000200000000000000000000000000000000000D0
:1000300000000000000000000000000000000000C0
:1000400000000000000000000000000000000000B0
:1000500000000000000000000000000000000000A0
:1000600000000000781DED0000030200C0AD02009A
:100070001548013400000000FFFFFFFF00000000F2
:100080000000000000000080A0010000000000004F
:100090000000000000000000000000000000000060
:1000A0005354FFFFA00100001FF950C641DDBC52B0
:1000B000B3781A5B7C47898F28B447B7954858991D
:1000C000B1B822F727129E05192482BBAEFA00E8C8
:1000D000BA1FF8AEA807E107F0E157118C4A6D1D71
:1000E000D6A0916F91C6A617BA9AB1D4F66A4C3CC5
:1000F00029BACAB5B845A3368C0F630958EBECE3AF
:100100007320B3AD31CDB3481D69C30BD96B16A6AF
:100110000284A1818CA24DA0A0A94BB33D215BB765
:1001200015996AD956203808DE51E7FB5FBC395C67
:10013000A9DCDE545412FB0AA1BB4E7CE4D873CA7E
:1001400039FD3F20ACCA689D2855224107516BA05C
:10015000DF2F3EC66E06DA8EEF541B85368A0E03FD
:10016000FF50ADA8C23A970EEC8092D068E191A8FA
:10017000BFAF6A7805A481926FB1FED6619E9239B5
:10018000CC24EED69A49C89260C77F2EC4F12B5A70
:100190002DA11BF0E722CAE07DE62648260503CA0A
:1001A0005A16D8124B42BCAD2FF456D80607A5BE3E
:1001B000A834CCE3F32E9FCF4E27066881839F0B94
:1001C000C35B1910DA0F81D3BB1A8A78A250785B0F
:1001D0006AF503AE8C887AF7B0FBD3A5D3A4D5FD1E
:1001E000CCEDCF91F5C11CF6F7FA5CE71A7082AA44
:1001F000FC861159E84780FBF7FB8AEDE7DB8B3B78
:10020000E42C424D709AF1EF4848819E2011C8D0ED
:10021000DEEC7B87194F3FD85FABD6AF256FE82B5D
:1002200002A6CDA3B8EB49DD58C2C3BD796A613DD2
:10023000AB3FC11C06AFEA53534A616BA67AC75D58
:1002400000000000000000000000000000000000AE
:10025000000000000000000000000000000000009E
:10026000000000000000000000000000000000008E
:10027000000000000000000000000000000000007E
:10028000000000000000000000000000000000006E
:10029000000000000000000000000000000000005E
:1002A000000000000000000000000000000000004E
:1002B000000000000000000000000000000000003E
:1002C000000000000000000000000000000000002E
:1002D000000000000000000000000000000000001E
:1002E000000000000000000000000000000000000E
:1002F00000000000000000000000000000000000FE
:1003000000000000000000000000000000000000ED
:1003100000000000000000000000000000000000DD
:1003200000000000000000000000000000000000CD
:1003300000000000000000000000000000000000BD
:1003400000000000000000000000000000000000AD
:10035000000000000000000000000000000000009D
:10036000000000000000000000000000000000008D
:10037000000000000000000000000000000000007D
:10038000000000000000000000000000000000006D
:10039000000000000000000000000000000000005D
:1003A000000000000000000000000000000000004D
:1003B000000000000000000000000000000000003D
:1003C000000000000000000000000000000000002D
:1003D000000000000000000000000000000000001D
:1003E000000000000000000000000000000000000D
:1003F00000000000000000000000000000000000FD
:1004000000001034154801345527003457270034B4
:10041000592700345B2700345D2700345F27003400
:100420000000000000000000000000006127003410
:10043000632700340000000065270034672700347C
:1004400071480134000000007148013471480134E2
:1004500071480134714801347148013471480134E4
:1004600071480134000000007148013471480134C2
:10047000714801347D2000347148013400000000CF
:1004800071480134000000007148013471480134A2
:1004900071480134714801347148013471480134A4
:1004A0007148013471480134714801347148013494
:1004B0007148013471480134714801347148013484
:1004C0007148013487270034714801347148013480
:1004D0007148013471480134714801347148013464
:1004E0007148013400000000714801347148013442
:1004F0007148013471480134714801346B2700346C
:100500007927003400000000000000000000000017
:1005100071480134AD4401347148013471480134EB
:100520007148013471480134714801347148013413
:100530007148013471480134714801347148013403
:1005400071480134714801347148013471480134F3
:1005500071480134714801347148013471480134E3
:1007400000000000714801347148013400000000CD
:1007500010B5054C237833B9044B13B10448AFF3FB
:1007600000800123237010BD00B00234000000009F
:10077000F096013408B5034B1BB103490348AFF3AE
:10078000008008BD0000000004B00234F09601347F
:10079000034613F8012B002AFBD1181A01387047C1
:1007A00090EDAD6A30B52DED108B90EDA87BB5EED8
:1007B000C06A87B08DED027B002390EDA47BF1EE43
:1007C00010FA91ED015A91ED004A91ED02FB91ED85
:1007D00004EB044690ED123B90EDAACB90ED16ABE6
:1007E0008DED047B90EDA6BB80F8603009DCD0F87D
:1007F000C832D14898474FF0FF3007B0BDEC108B9E
:1008000030BDB8EE455B9FEDBE7BB8EE444B25EEA8
:10081000077BB4EEC47BF1EE10FA0FDD90ED1C7B8C
:100820009FEDB92B37EE022B9FEDB97BB4EEC72BB2
:10083000F1EE10FA37FE027B80ED1C7B9FEDB67B5C
:1008400025EE075BB4EEC45BF1EE10FA10D594ED23
:100850001C7B9FEDAD5B37EE457B9FEDB15BB4EE4E
:10086000C57BF1EE10FA58BFB0EE475B84ED1C5B20
:1008700083EE0C8BBCEEC88BB8EE488B94F85050CE
:1008800028EE0C8B012DB7EEC66A40F0AC809FEDD0
:10089000A67B3FEE4E5B85EE07DB3FEE0E5B85EE03
:1008A000079BB0EECD7BB4EEC76BF1EE10FAB0EE65
:1008B000C95B1FDBB4EEC56BF1EE10FA1ADB002347
:1008C00084F8783094ED1A7BB5EEC07BF1EE10FA27
:1008D00040F33481012384F860309DED027BB4EE57
:1008E000C7ABF1EE10FA40F13C819DED047B3AEE8E
:1008F00007BB28E1B4EEC56BF1EE10FA0CD589EE1A
:100900000D5B94EDAE6AB0EEC55BB7EEC66AB4EEB1
:10091000C65BF1EE10FAD5DAF7EECA0BB7EEC70BED
:1009200018F082FDB2EE047BB7EEC00A20EE070B92
:10093000FCEEC87BB0EECE6BCDED017AB0EECF7B96
:10094000B4EEC67BF1EE10FA62DCB5EEC0EBF1EE70
:1009500010FA62D538EE000B94ED3C7BB4EEC07B10
:10096000F1EE10FA03D5B0EE4BABB0EE470B94EDC1
:100970003A7BB4EEC07BF1EE10FA03DDB0EE4BAB88
:10098000B0EE470B80EE0C8BBCEEC88BB8EE488BFC
:10099000012D2CEE088B16D1B4F8E030022B3FD895
:1009A000DDED017AB8EE677B04EBC30282ED207BBC
:1009B00082ED268B04EB0312013382ED2CDB82EDFA
:1009C0002E9BA4F8E03094F87830012B07D0FCEE91
:1009D000C87B17EE903A019A93423FF473AF01231C
:1009E00084F860306EE7B0EECF7BB0EECE5BB4EE55
:1009F000475BF1EE10FA35FE077BB4EEC67BF1EEF5
:100A000010FA7FF65FAF9FED4A9BB0EE49DB83E7BC
:100A1000B5EEC0FBF1EE10FA9CD538EE400B9BE72B
:100A200094ED2A7B94EDAF6A38EE477BB7EEC66A49
:100A3000B0EEC77BB4EEC67BF1EE10FA56DB94ED58
:100A4000287B38EE477BB0EEC77BB4EEC76BF1EE88
:100A500010FA4BDD94ED320B94ED307B39EE400B08
:100A60003DEE477B20EE000BA7EE070B18F0A4FC31
:100A700094EDB07AB7EEC77AB4EEC70BF1EE10FA88
:100A800034D5DDED017AB8EE678B84F8785094F8B0
:100A90007830002B97D1102204F1880104F18000F6
:100AA00016F08BFF102204F1A00104F1980016F05B
:100AB00084FFD4E93023DDED017AB8EE677BC4E929
:100AC0002C23D4E9322384ED247BC4E92E23D4E9FA
:100AD000342384ED2A8BC4E93023D4E9362384ED12
:100AE00034DB84ED369BC4E932236CE794F878302C
:100AF000012B04BF002384F87830C8E7AFF30080EF
:100B00009A9999999999A93F7B14AE47E17A843FC4
:100B1000343333333333C33F333333333333C33F6C
:100B2000111111111111B13FCD3B7F669EA0F63F0F
:100B3000000000000000000040A5023494F860307E
:100B4000002B7FF4CAAE88EE0C7BBCEEC77BB8EE00
:100B5000477B27EE0C7B84ED16BB84ED127B0120D6
:100B60004BE69DED02BBEEE790ED1A6BB5EEC06B68
:100B700090ED124BF1EE10FA90EDAA5BB0EE467BD1
:100B8000DFBF84EE057BBCEEC77BB8EE477B27EE6C
:100B9000057BB7EEC77B90ED3C5BB7EEC74AB4EE82
:100BA000C54BF1EE10FAC8BFB7EEC57B90ED3A5BCE
:100BB000B7EEC74AB4EEC54BF1EE10FA48BFB7EE38
:100BC000C57BB7EEC75AD0F8743230B580ED125BF2
:100BD00093ED005AD0EDAC7AB4EEC75AF1EE675AF5
:100BE000F1EE10FA4FF00001B0F8F83075FEA77A78
:100BF000013B8AB2934205D8442202FB030303F56A
:100C0000907311E000EB8204D4ED445A77EEA55ABC
:100C1000F4EEC75AF1EE10FA01F10101E9DB4423C9
:100C200003FB020202F59073B5EEC06BF1EE10FA11
:100C3000C0F8743205DC93ED007AB7EEC77A80ED28
:100C4000127B5A6803F1380142609A6803F1240468
:100C50008260DA68C2601A69026100F138025D6977
:100C60000C334561DD680C30C5601D69A342056128
:100C700051F8045B42F8045BF1D1012030BD10B59E
:100C8000044690B070B10023084C40212370C4F892
:100C9000C802074B6846074A18F05AFB6846D4F862
:100CA000C8329847204610B010BD00BF20B00234B3
:100CB00008AD023480A50234002814BF01204FF093
:100CC000FF30704780ED000A30B50C6844604C6816
:100CD00084608C68C460C96802F12404016100F179
:100CE000380115680C32456152F8085C0C30C5605B
:100CF00052F8045CA242056153F8045B41F8045BBE
:100D0000EFD130BD2DE9F04F2DED068B0E46B0EE44
:100D1000409BB0EE418B1D460446C7B0002800F052
:100D20008F819FEDCBAB80ED12AB0020CE494FF011
:100D30000008C4E91601C4E9A601C4E9AA01CB4927
:100D4000DFF85C93C4F8B0124FF07E51C4F8B412CF
:100D50004FF07C51C4E91A890FF2FC29D9E90089C6
:100D6000C4E91C89C4E9A4894FF00008C4F8B8128A
:100D7000BF49DFF83093C4F8BC124FF07F51002315
:100D8000C4E9A88901274FF00008C4F8C012711EF9
:100D9000DFF8149388B20428C4E9A0890FF2C029AF
:100DA000D9E9008984F86030C4E9A289A4F8E03068
:100DB00084F87830A4F8787214D905234FF4807140
:100DC000AC4A06A818F0C4FAD4F8C83206A8984766
:100DD00084F85070204647B0BDEC068BBDE8F04F5C
:100DE000FFF7C2BE95ED007AB7EEC77AB4EEC70B37
:100DF000F1EE10FA12DDD4F8C8329F48984795ED0D
:100E0000007AB7EEC77A8DED009B8DED027B9B4A91
:100E10004FF4807106A818F09BFAD5E74FF0440C08
:100E20000CFB065818ED117AB7EEC77AB4EEC71B63
:100E3000F1EE10FA41D5D4F8C8329148984798EDB0
:100E4000007AB7EEC77A8DED008B8DED027B8D4A6F
:100E5000DEE70CFB08F705EB070944372F4499ED53
:100E6000007AD7ED007AB4EEE77AF1EE10FA08F1E5
:100E7000010A00F1010021DBD4F8C832824898470A
:100E800097ED007AB7EEC77A8DED047BCDF808A018
:100E900099ED007AB7EEC77A43468DED007B7B4A29
:100EA0004FF4807106A818F053FAD4F8C83206A897
:100EB0009847012384F850308CE718461FFA80F8D1
:100EC0004145C6D800234FF0440CB01E9FB2B94232
:100ED00039D884ED3A9B84ED3C8B0020A4F8F8606F
:100EE00083B2994200F1010000F28B800027B846DE
:100EF00004F1FC0A04F5907905EB070B09EB0700F8
:100F00004422594614F033FFDBF8003008F10108A1
:100F10004AF8043B1FFA88F39E4207F14407EBD8D6
:100F2000731E9BB2002E03F1010314BF1A46012267
:100F3000C4F8749204F5B271013A6AD1012384F8BD
:100F40005030237046E702EB8709B842D9ED007AAA
:100F50004FEA870807F1010A1ED908F104089044F6
:100F600098ED007AB4EEE77AF1EE10FA14D8D4F8DE
:100F7000C8324748984798ED007AB7EEC77A8DEDAA
:100F8000047BCDF808A099ED007AB7EEC77A3B460E
:100F90008DED007B3F4A83E70CFB07F805EB080A61
:100FA0009AED007AB4EEE77AF1EE10FA08F144080F
:100FB000A84408DA98ED007AB4EEE77AF1EE10FA78
:100FC00003F1010382D8D4F8C8323348984798ED2A
:100FD000007AB7EEC77A8DED047B9AED007AB7EE12
:100FE000C77A8DED027B99ED007AB7EEC77A3B4662
:100FF0008DED007B4FF48071284A06A818F0A8F9FF
:1010000053E702EB83073F6804EB8303C3F81071D7
:1010100066E7D4F8743291ED006A93ED007AB7EE8A
:10102000C66AB7EEC77A36EE4A6B37EE4A7BB4EE45
:10103000C76BF1EE10FA48BFC4F8741244317BE775
:101040004FF0FF3047B0BDEC068BBDE8F08F00BF1E
:10105000000000000088B3409A9999999999B93F86
:101060000000000000A06E400000F03F0000484279
:1010700000002F4390A50234D4A502345BA60234AD
:10108000B9A6023441A702349EA7023402A8023452
:101090005AA80234C9A8023433A902348AA90234F6
:1010A0000000F0BF000008400000244030B50546B5
:1010B00014468DB052B9D0F8C8321D489847D5F8BB
:1010C000C8321C48984720460DB030BD93ED042B24
:1010D00093ED021B93ED000B0AAA08A906A800F0E5
:1010E0002FF8DDE90823CDE90223DDE90A23CDE964
:1010F0000423012398420446CDE90033DFD1694639
:101100002846FFF74DFB0128044603D0D5F8C83226
:101110000948D7E795F86030012BD4D12846FFF76E
:1011200023FD01280446CED0D5F8C8320348C9E7CC
:1011300010AA023471AA02349AAA0234CEAA023446
:10114000B5EEC00BF1EE10FA1FB509D4B5EEC01B19
:10115000F1EE10FA04D4B5EEC02BF1EE10FA0DD575
:101160008DED022B8DED001B53EC102B444814F039
:101170002FFA4FF0FF3005B05DF804FB9FED327B96
:10118000B4EEC70BF1EE10FA09DCB4EEC71BF1EEBA
:1011900010FA04DCB4EEC72BF1EE10FA07DD8DED8A
:1011A000022B8DED001B53EC102B3648DFE728B1E6
:1011B00089B1B2B93449354B084607E071B13349BA
:1011C0003148002A304A314B18BF13460246304896
:1011D00014F0FEF9CDE72C492C48F2E72B490846DC
:1011E000EFE79FED1B7B9FED1C6B21EE077BB3EEC2
:1011F000005BA0EE067B9FED1A6BA2EE057BA7EECF
:10120000065B9FED197B80ED005B27EE417BBBEE1B
:101210000A5BA0EE057B9FED165BA2EE057B27EE39
:10122000067B81ED007B9FED147B27EE411BB2EE28
:10123000047BA0EE051BA2EE471B21EE061B01203E
:1012400082ED001B97E700BF0000000000E06F4048
:101250000000000000A06340000000000080474044
:10126000000000000000703F0000000000805540BA
:101270000000000000005C400000000000805940B9
:1012800003AB023441AB0234677802346578023430
:1012900081AB02340000000010B5044690B060B18C
:1012A0000023074C40212370A065064B6846064A80
:1012B00018F04EF86846A36D9847204610B010BD50
:1012C000F0B202340EAD0234CBAB0234002814BFAE
:1012D00001204FF0FF30704738220A23C0E9042371
:1012E00064232D227821C0E9063240F2DC5230B569
:1012F000C0E9081241F2707442F6E062C0E90A42A5
:101300000BA5D5E9004505224FF0000C026548F217
:10131000E802C0E910C20122C0E90C4506A5D5E9E2
:101320000045C0E91223C0E90E4530BDAFF300808F
:1013300000000040E17A943F000000E04D62703F01
:1013400010B5044620B1FFF7C7FF0120207010BD83
:101350004FF0FF30FBE72DE9F0410E460446002830
:1013600000F0E180017801290BD102210170A56C08
:10137000C4E90126B54208D2616C914205D9A56045
:101380004CE00229F3D0002049E0D4F810C0B6EEBA
:10139000005B07EE90CAB8EE676A07EE903AB8EEC7
:1013A000E77BB7EEC66A37EE057B86EE070B216D4D
:1013B000B7EEC00B8B424BD2F0EE007AB4EEE70AE8
:1013C000F1EE10FA44D4616CB7EE007A8A4220D272
:1013D000012A134638BF012307EE903AF8EEE77A68
:1013E00067EE807AFDEEE77A17EE903A8B42C1BF46
:1013F00007EE901AB8EEE76A07EE902AF8EE676AF1
:10140000C3BFC6EE267A0B4680EE270AB0EE470A27
:101410006360B4EEC70AF1EE10FA02DC0120BDE809
:10142000F081B7EEC00A16F0C3FBB3EE047B20EEEA
:10143000070B9FED3F7B20EE070BBDEEC00B10EEC0
:10144000103AE26C33449342D4BFA360A260E5E754
:10145000ACEB0307E16987EAE770A0EBE77088422D
:1014600047D8606AD4F814E0A1690EEB0C089845DF
:1014700007FB01F143D207EE900A9FED2F7AF8EEB9
:10148000E77A67EE877A07EE101AF1EE676AB8EE30
:10149000C77AB4EEE67AF1EE10FA04D5FDEEE77AFB
:1014A00017EE903A59420029B8D0B54232D1606C5B
:1014B000904201D800292DDA02FB077707EE902A27
:1014C00006EE907A0029B8EEE77BB8EEE66B1EDAFE
:1014D00094ED0E5BA5EE067BBDEEC77B17EE102AE2
:1014E000236C9A42B8BF1A468242D4BF62606060E1
:1014F00094E7216A88422CBFE06AA06AB2E7ACEBAD
:101500000E0C9C458ADD8142A8BF0146CBE794EDD5
:101510000C5BDFE70E44B5423FF731AFE56CB542F7
:10152000A8BF35462BE74FF0FF3078E7AFF30080D8
:101530000000000000408F409A99593F7BB972B972
:101540000029BEBF00204FF0004106E008BF002880
:101550001CBF6FF000414FF0FF3000F0C9B9ADF192
:10156000080C6DE904CE002909DB002B1ADB00F022
:101570004DF8DDF804E0DDE9022304B07047404295
:1015800061EB4101002B1BDB00F040F8DDF804E0CB
:10159000DDE9022304B0404261EB4101524263EBBA
:1015A00043037047524263EB430300F02FF8DDF82A
:1015B00004E0DDE9022304B0404261EB41017047E1
:1015C000524263EB430300F021F8DDF804E0DDE96B
:1015D000022304B0524263EB4303704753B94AB944
:1015E000002908BF00281CBF4FF0FF314FF0FF302B
:1015F00000F07EB9ADF1080C6DE904CE00F006F8FC
:10160000DDF804E0DDE9022304B070472DE9F04F76
:10161000099D0C46002B4DD18A420F4684469646C2
:10162000B2FA82F360D94BB102FA03FEC3F1200291
:101630009F4000FA03FC20FA02F217434FEA1E46CD
:101640001FFA8EF44FEA1C42B7FBF6F106FB117746
:1016500001FB04F042EA0742904208D91EEB020265
:1016600001F1FF3702D2904200F22D813946121A61
:101670001FFA8CFCB2FBF6F006FB102200FB04F410
:101680004CEA024C644508D91EEB0C0C00F1FF3209
:1016900002D2644500F21A81104640EA0140ACEBE8
:1016A000040C002125B12CFA03F30022C5E9003215
:1016B000BDE8F08F8B4205D90DB1C5E900010021CD
:1016C0000846F5E7B3FA83F100294DD1A342C0F0F3
:1016D000F280904280F0EF80064623460846002DB7
:1016E000E6D0C5E90063E3E7002B40F0A2808A1A48
:1016F0004FEA1E471FFA8EF60121B2FBF7F407FBF3
:1017000014204FEA1C4242EA004206FB04F09042D9
:101710000FD91EEB020204F1FF382CBF4FF0010974
:101720004FF00009904203D9B9F1000F00F0C880D2
:101730004446121A1FFA8CFCB2FBF7F007FB10228A
:1017400000FB06F64CEA024C664508D91EEB0C0C71
:1017500000F1FF3202D2664500F2BB801046ACEBCE
:10176000060C40EA04409DE7C1F120068B4004FAD4
:1017700001FE22FA06F720FA06FCF4408A401F43D5
:101780004EEA0C0300FA01FE4FEA17484FEA1349EC
:101790001FFA87FCB4FBF8F008FB104449EA044444
:1017A00000FB0CF9A1450ED93C1900F1FF3A2CBF02
:1017B0004FF0010B4FF0000BA14503D9BBF1000F17
:1017C00000F093805046A4EB09041FFA83F9B4FBA0
:1017D000F8F308FB134403FB0CFC49EA0444A4455A
:1017E00006D93C1903F1FF3801D2A4457AD8434603
:1017F00043EA0040A4EB0C04A0FB02984445CC460D
:10180000434602D306D1CE4504D20138B9EB020CCF
:1018100068EB07035DB1BEEB0C0264EB030404FA52
:1018200006F622FA01F3CC401E43C5E9006400210C
:101830003EE702FA03FEC3F1200104FA03F200FAC4
:1018400003FCCC404FEA1E4720FA01F11FFA8EF646
:10185000B4FBF7F00A4307FB1044110C41EA0441C2
:1018600000FB06F48C420ED91EEB010100F1FF389B
:101870002CBF4FF001094FF000098C4202D9B9F199
:10188000000F2CD04046091B92B2B1FBF7F407FBC6
:10189000141142EA014204FB06F1914207D91EEB02
:1018A000020204F1FF3801D2914215D84446521A7F
:1018B00044EA004121E7861A64EB030301200EE7A6
:1018C000023C724435E702397244D0E6F4440238EF
:1018D000E3E6F444023842E7023C7244E7E70238A8
:1018E0007144D0E7023B3C4482E702383C446AE75B
:1018F000704700BF044B82B0C3F84C0AD3F84C3297
:101900000193019B02B0704700800256044B82B0E5
:10191000C3F88C0AD3F88C320193019B02B0704754
:10192000008002561FB50023CDE902331E4B01A8EB
:10193000019305F0E5FB1D4B01A8019305F0E0FBC9
:101940001B4B01A8019305F0DBFB1A4B01A8019387
:1019500005F0D6FB4FF00042174B0124C3F8202AB4
:1019600003F58053C3F820220220C3F8602204212B
:10197000C3F8A0220822C3F84C42C3F84C02C3F8B3
:101980004C12C3F84C22C3F88C42C3F88C02C3F843
:101990008C12C3F88C224FF48052C3F85422C3F83F
:1019A000942204B010BD00BF0031025280310252B7
:1019B00000320252803202520080025640F201137D
:1019C00007B500206946ADF800300FF0F9FA0020A5
:1019D0000FF0E6F94FF48052064B0748C3F8A02AEF
:1019E000D3F8A0320193019B01F0BEF803B05DF87B
:1019F00004FB00BF0080025658990134C84B2DE902
:101A0000F04FDA6BA3B042F48052DA63DA6B402510
:101A100042F01002DA63C34A20261368012743F418
:101A200000531360FFF77EFF06F0D6FD1022BE4B79
:101A3000BE4CC3F84C224FF40032C3F84C62C3F8DA
:101A40004C52C3F874224FF48032C3F87422C3F8A6
:101A5000587206F0C7FD236A142223F44033236230
:101A6000236A002123F04073236212A813F0F8FECA
:101A70000423C4F85C3AD4F85C2221200692069A2A
:101A80000022C4F89C3AD4F89C3211460593059B79
:101A9000C4F85C5AD4F85C320493049BC4F89C5A92
:101AA000D4F89C3202240393039B01F0D9FC21203B
:101AB00001F034FD4FF400524FF488139C4812A9F2
:101AC000CDE91223149404F07BF99A4812A9CDE9C8
:101AD0001374129604F074F901F060FC964B5A6985
:101AE00012F4003211D1BFF34F8FBFF36F8FC3F8E1
:101AF0005022BFF34F8FBFF36F8F5A6942F4003209
:101B00005A61BFF34F8FBFF36F8F864A136843F458
:101B100080531360A2F57342536913F4803328D1C4
:101B2000C2F88430BFF34F8F43F6E074D2F88030B0
:101B3000C3F3C900C3F34E335B0100F1010E01464C
:101B40004EF001E003EA040646EA8175C2F86052ED
:101B500001390FF007C8203B13F1200FEDD1BFF37F
:101B60004F8F536943F480335361BFF34F8FBFF3FB
:101B70006F8F01F017FA00F0EFFA4FF400736B4D1E
:101B80000324C5F8583AD5F8583201200793079B2B
:101B9000022312A9CDE9123405F09CF9082012A9FC
:101BA00005F098F9092012A905F094F90A2012A964
:101BB00005F090F90B2012A905F08CF921465F4839
:101BC00005F0DCF921465E4805F0D8F921465D486C
:101BD00005F0D4F921465C4805F0D0F921465B4870
:101BE00005F0CCF921465A4805F0C8F92146594874
:101BF00005F0C4F94FF48063C5F8583AD5F8582277
:101C00000892089A484AC5F8183AC2F8183200F003
:101C10003DFF00223821504D504B2C681860A0F138
:101C20003807234603FB0116BE590134002E40F04D
:101C30001E8102B12B60052B00F31B81484E002B47
:101C400003F101023446B8BF01224649013A40F08F
:101C50001681454800F04CFA00244FF00109DFF8E6
:101C6000D48000222021404604F0F2FB212001F024
:101C700097FC2F2001F066FC01F0C6FB012100203B
:101C800006F0B6FC01F0C7FB00F028FF012220217E
:101C9000404604F0DDFB00F001FF344800F064FF33
:101CA00010F07AF8324800F05FFF04211F4A314FEC
:101CB00080203C60C2F8BC1AD2F8BC320D930D9B58
:101CC0004023C2F8BC3AD2F8BC320C930C9BFFF70D
:101CD0001DFE4FF48070FFF719FE4FF40070FFF700
:101CE00015FEC2F8A49AD2F8A43223480B930B9B9A
:101CF0004FF40013C2F8A43AD2F8A4320A930A9B14
:101D00004FF48003C2F8A43AD2F8A4320993099B95
:101D100010F0A2F8194800F027FF01F075FB2FE042
:101D20000048025600E001E0009002560080025692
:101D3000000802560018025600ED00E00A000030CC
:101D4000050000301C0000201D00002006000030AF
:101D5000070000300800003014B4023418B4023414
:101D600050B3023464B30234400005349599013411
:101D7000A599013420B4023440B40234AE99013440
:101D80003868002800F08A8001F045FB9F4800F089
:101D9000EBFE10F075F89E4800F0E6FE10F04AF8F1
:101DA0009C4800F0E1FE01F0E7F801F0C1F801F015
:101DB000F6F84FF480520120FFF7A8FD0220FFF74C
:101DC000A5FD0420FFF7A2FD0820FFF79FFD0120DD
:101DD000FFF790FD0220FFF78DFD0420FFF78AFD3D
:101DE0000820FFF787FD8C4BDFF888B2C3F8542A30
:101DF000D3F8541212A80F910F99C3F8942AD3F86C
:101E000094120E910E99C3F8142A03F17C43CBF877
:101E10001422A3F59E431293CDE9134405F032F941
:101E20007E4B12A8129305F02DF97D4B12A8129348
:101E300005F028F97B4B12A8129305F023F900F066
:101E400037FD00F045FDFFF7B9FD00F01BFE764BB6
:101E500076491860D0E902320020D21A00F0A6FDBF
:101E60000746F8B140F2A911714B724A04E0012211
:101E7000D7E6D121704B714A714812F0FBFC077D07
:101E8000436807B11B68876838303B4441F8043B1E
:101E900050F82C3CDB1B44F8043BD7E6012106F04C
:101EA000A7FB6DE7674800F05FFE01F0ADFA6648FA
:101EB00011F018FF01F0AFFA644800F055FE01F090
:101EC000A3FA614811F00EFF01F0A5FA604800F096
:101ED0004BFE01F047F838460EF09EFF4FF40053DA
:101EE00040223946CBF8603212A813F0B9FC12A890
:101EF00007F07EFC12A800F0BBFF2968554B564A3C
:101F0000564800F00FF9564800F02EFE00F0DAFDBA
:101F1000B446384653492B68984235DB102712A83F
:101F200000F0D6FF3C4A4FF0600BC2F86C7AD2F852
:101F30006C124D4811911199C2F85C7AD2F85C226A
:101F400012A91092109A0222CDE9132915920722A4
:101F5000CDF848B0169203F033FF4FF4E132DFF8CA
:101F600018A1424B5046CAE900320C22CAE9044289
:101F70004FF40042CAE90244CAF81840CAF81C20CB
:101F80000DF056F838B3FEE75CF8042B002A20DD8C
:101F9000324B53F8203003F01F0A9244BFF34F8FA7
:101FA000DA4303EB0A0E7244AAF1200A52091AF12D
:101FB000200F02F1010ED8BF4FF0010E4EF001E0EC
:101FC000C1F85C3220330FF005C8BFF34F8FBFF369
:101FD0006F8F01309FE7019000F01AFE019A2021D7
:101FE000234804F035FAFFF79DFC00F077FC00F081
:101FF00069FC50460CF006FC59461B4804F0FAF800
:102000001C4AC2F86C72C2F85C722AE6BD990134AF
:10201000C8990134D39901340080025680310252AC
:1020200000320252803202521CB4023440B40234F4
:10203000E29901344D9A0134679901345A9A013476
:102040008A990134019A013424AD0234199A013479
:10205000309A0134400005340CB4023464B30234C5
:102060003D9A013400ED00E00010025600100052CD
:10207000001802560090025678B30234FEE70000C2
:1020800010B514464FF0FF3392B202480CF01EFF19
:10209000204610BD78B3023400BEFEE70120704731
:1020A00008B513F021FE162303604FF0FF3008BD82
:1020B00008B513F019FE16230360FEE770B50D4650
:1020C00014460E46731B9C4201DC204670BDAFF3E4
:1020D000008006F8010BF5E74FF0FF3070474FF432
:1020E000005300204B60704701207047002070476C
:1020F000094A05218261094AC2610122C0E9002121
:102100000722C0E9022231220261054A02620A2244
:10211000426100F0F7B900BF9A99193F9A99993E28
:102120004C9B013413B50C46012C11461A4605D0C0
:10213000C321064B064A074812F09CFB036801A81E
:10214000019300F0E3F902B010BD00BF149B01340D
:10215000389B0134229B01341FB5154B7C2101AA09
:1021600002A802930DF018FE0346E0B9019A02F4AA
:10217000C031B1F5C03F17D042F4C0327C2102A873
:1021800001920DF025FE68B97C2101AA02A80DF08C
:1021900003FE30B9019B03F4C033B3F5C03F03D055
:1021A000FEE7FEE7FEE7FEE705B05DF804FB00BFD3
:1021B000009000560C4B1B68053300EB830001EBCD
:1021C0008301D0ED007A91ED007A77EEC77AF5EED3
:1021D000C07AF1EE10FA04D4CCBF4FF0FF300020EB
:1021E00070470120704700BF680005342DE9F04FAB
:1021F000D0F800900C46CA4600270D6885B005351A
:102200004FEA85082368BB4203DC002005B0BDE827
:10221000F08F2B4B48461F6042462A4B616A12F0F2
:1022200080FB56460020626A6A43824208DC002333
:1022300050461E469A4230DA01370AF1040AE1E7B5
:10224000D6ED057AF5EE407AF1EE10FA05EB0002D4
:10225000464401D11046E6E79346334609EB800039
:10226000616A69435945F5DD09EB8B01CDE902321D
:10227000019000F053FADDE90103D4ED077AB4EEE2
:10228000E70AF1EE10FAC8BFDFED0F7A039AC8BF74
:10229000C3ED057AAB444344E2E76169B1420ADD2C
:1022A000D0ED057AF5EE407AF1EE10FA03D0013662
:1022B0002B444044BEE7DFED047AC0ED057AF7E732
:1022C00068000534B5210034000000002DE9F74F07
:1022D0000B6817680D4616460468053703B90C608D
:1022E0004FF000094FF0180BC8464FEA870A143424
:1022F000736A7B434B4505DC0020C5F8048003B0BE
:10230000BDE8F08F6A462046316801AB00F014F951
:10231000DDED007A96ED067AB4EEE77AF1EE10FA8A
:1023200014D82B6854F8142C0BFB08331A6054F89B
:10233000102C08F101085A6054F80C2C9A6054F8DB
:10234000082CC3ED047ADA60019A5A61B944544406
:10235000CEE72DE9F04F2DED048B8BB0D1ED027A55
:10236000B7EE007AF8EEE77AC7EE278AD1ED037A66
:102370000025F8EEE77A00230C4687EE279A2E46D2
:10238000AA4600AF3B620B68BD615A1D9B003A61D3
:10239000DA1D22F00702ADEB020D02681433C7F814
:1023A0000CD07A61BB60A368AB4200F3A780002029
:1023B000BB692C376362BD46BDEC048BBDE8F08F72
:1023C0001BED010A00F00CF95946FB6822680BED81
:1023D000010A584600F010F921685A46002901F117
:1023E0000103B8BF0123013B7AD1584607F124030A
:1023F00007F1200200F0A0F894ED067AD7ED087AF4
:10240000B4EEE77AF1EE10FA51D879690AF10403D3
:1024100001EB830821685BF8042C43460029C8F8C7
:102420000020DC4601F10102B8BF01220433013A69
:102430005FD11BED050A00F0D3F8D7ED077AF8EE6F
:10244000E77A77EE807A67EEA87A48ED047A1BED9A
:10245000040A00F0C5F807EE905AF8EEE77A77EE36
:10246000807A67EE897A48ED037A236A1BED030AC6
:1024700003EBC90393ED008A7B6015F0D1FE28EED3
:10248000008A28EE288A08ED028A7B681BED020A82
:1024900093ED018A15F0C4FE28EE008A28EE098A21
:1024A00008ED018A3B699A44BB690133BB61BB6893
:1024B00009F101099B443B691E4463684B453FF7A2
:1024C0007FAFFB69053E0133FB61FA69E368934224
:1024D00016DD7B6905364FF0000903EB860BECE750
:1024E00092ED007A5BED017A67EE877AE2EC017A91
:1024F00079E75CF8041B43F8041B98E70023E3E743
:10250000013550E7034600205862704770B50E460B
:10251000114605461446FFF71CFF58B921462846C8
:10252000FFF764FE30B9224631462846BDE87040C8
:10253000FFF7CCBE70BD0000F0B500246FF40005BD
:10254000A6EE104B25EE6E2FCC1CA40811F1040F43
:1025500004F101042DED048BA4EE105B0E469FEDFB
:102560001C8B9FED1D9BCCBF27460127013F13D13C
:10257000BDEC048BEEEE045F35EE451F1560FDEEFD
:10258000102A12B2A4EE101BEDEE102A37FE056FD2
:10259000EAFE861F1960F0BD26F001E8FDEE104A44
:1025A00024B2EDEE104A71FE4D0FB0EC041F71FE27
:1025B0004D0F31EE051FFDEE104A24B2EDEE104A2C
:1025C000043E33FE076F31FE054F22EF4828CDE76A
:1025D00004000000040000000400000004000000EB
:1025E00008B5B1EE400A15F01BFEF7EE007A30EEAA
:1025F000270A87EE800A08BD2DE9F0470F462DED2A
:10260000028B14461D46064698469A464FF000092E
:102610009FED148AA14513DBF7EE007A002C04F13C
:10262000010287EE887AB8BF0122013A13D1BDECCE
:10263000028B29463846A200BDE8F04713F097BB4D
:10264000B6EC010A15F0ECFD09F10109AAEC010A4A
:1026500038EE008ADEE7D8ED007A67EE877AE8EC9C
:10266000017AE2E700000000F6EE007A60EEA70AC9
:1026700061EEA71A30EE607A71EE617A70EE800A30
:10268000B4EE677A31EE811AF1EE10FAF4EE410AF7
:1026900077FE277AF1EE10FA48BFB0EE601A31EEFD
:1026A000670A7047D1ED021A91ED001AD0ED020AC7
:1026B00090ED000A08B5FFF7D7FFB5EEC00AF1EEBE
:1026C00010FAF0EE406A11D4D1ED031A91ED011A1F
:1026D000D0ED030A90ED010AFFF7C6FFB5EEC00A80
:1026E000F1EE10FA02D426EE800A08BD9FED010A31
:1026F000FBE700BF0000000010B5FFF7D3FF91ED2E
:10270000037AD1ED027AD0ED026A67EE877A90ED16
:10271000037AE6EE877A37EEC00A10BD08B5FFF7F8
:10272000C1FFB5EE400AF1EE10FAB0EE406A0BD0F0
:10273000FFF7E2FFB5EE400AF1EE10FAF0EE407A54
:1027400002D086EE270A08BD9FED010AFBE700BF15
:10275000000000007047FEE7FEE7FEE7FEE7FEE749
:102760007047FEE7FEE700F02BBE08B50DF0AAFEAD
:10277000BDE8084001F02CBD08B50DF0A3FEBDE892
:10278000084001F0EFBB4FF4005003F07DBE0000A5
:1027900030B5134D6B69DB031FD50A1A002A1CDD07
:1027A00000F01F031A44BFF34F8F8418C2431B1A53
:1027B0000B442244203B5209203302F1010ED8BFC2
:1027C0004FF0010E4EF001E0C5F85C0220300FF032
:1027D00005C8BFF34F8FBFF36F8F002030BD00BF20
:1027E00000ED00E030B5134D6B69DB031FD50A1A0D
:1027F000002A1CDD00F01F031A44BFF34F8F84181A
:10280000C2431B1A0B442244203B5209203302F1DD
:10281000010ED8BF4FF0010E4EF001E0C5F868027E
:1028200020300FF005C8BFF34F8FBFF36F8F00202C
:1028300030BD00BF00ED00E04FF48062114B84B06A
:10284000C3F84C2AD3F84C1203910399C3F88C2A8D
:10285000D3F88C220292029A4FF08042C3F8602A89
:10286000D3F8601201910199C3F8A02AD3F8A012FD
:1028700000910099C3F8202A03F58053C3F8202261
:1028800004B07047008002564FF080424FF48061E0
:10289000064BC3F8202A03F58053C3F84C12C3F843
:1028A0008C12C3F86022C3F8A02270470080025641
:1028B0000248034B036005F0ABBD00BF6C0005345C
:1028C00000FC0D58014805F055BE00BF6C000534F2
:1028D000014805F069BD00BF6C000534014805F0F2
:1028E000BBBD00BF6C0005340A1A0146014805F063
:1028F000EDBD00BF6C00053401490248FFF748BF39
:10290000806D2E34C0672E3430B5234DAFB02946CC
:102910002248FFF73DFFB422002101A812F0A0FFDA
:10292000D22440F2BE5107222A231E20CDE90614EC
:10293000CDE90222CDE90D228DF804300A91012360
:10294000119178224FF45271CDE90403CDE90803C7
:10295000CDE90F03CDE91212042041F2F862104CC8
:10296000CDE914020F4A0B940F4C219201A830328A
:102970008DF830308DF85C301C938DF888302793BB
:102980002C928DF8B430169411F016FE294620468C
:10299000FFF728FF2FB030BD00172E34E0162E347D
:1029A000C0672E34E0D3E07000002E3440B911F03F
:1029B0001F0007D1B2F5133F06D3044B19607047CF
:1029C00003207047012070470220704778B5053416
:1029D00010B9024B186870470020704778B505346D
:1029E000032070470020704700220E4B13B50E499C
:1029F0000E481A60FFF778FF42F63E530B490C4829
:102A000001AA019311F074FE044640B1084811F088
:102A1000B9FE084B044918600448FFF7E3FE20465E
:102A200002B010BD7800053478B505348000053457
:102A300028A801347C00053413B50B490B48FFF777
:102A400053FF0B4B0B4800930B4B00221B680749AD
:102A5000006811F0ABFE044618B103490348FFF7C4
:102A6000C1FE204602B010BD78B5053480000534A3
:102A7000780005347C00053478B50534004870478B
:102A8000BCA70134004870474CA701340048704788
:102A9000B4A6013400487047ACA00134064A13685C
:102AA00023B901211160054A126853620022044BC8
:102AB00002481A6004F064BB80B5053430D0053498
:102AC0007CB5053408B5034804F058FC0022024BDD
:102AD0001A6008BD30D0053480B50534102210B519
:102AE00088B000210DEB020012F0BAFE0023012194
:102AF000CDE90133194A0393C2F8641AD2F864226B
:102B00004FF0A0410092009A40F28F12144CC4E999
:102B100000124FF0FF322046C4E90323A360A361F3
:102B200004F0ACFD00B1FEE74FF48053204604A949
:102B3000049304F0D9FE00B1FEE70190039001A9CF
:102B4000204605F0E7FA014600B1FEE741F6902283
:102B5000044808B0BDE8104012F082BE0080025662
:102B600030D00534A0B5053470B5224C21686329F6
:102B700005D9AF21204B214A214811F07BFE442288
:102B8000204B4A431B68204D5E6AAB18A8501F4A71
:102B90005E60D2F8400201319860D2F84802D860F5
:102BA000D2F84C021861D2F850025861D2F854029F
:102BB0009861D2F85802D861D2F85C021862D2F853
:102BC00060025862D2F864029862D2F86802D86251
:102BD000D2F86C021863D2F870025863D2F874020B
:102BE0009863D2F87802D863D2F87C2221601A6404
:102BF00070BD00BF7CB50534605D02346A5E02348E
:102C00007B5D023430D00534A0B505340080025617
:102C1000F0B500258FB0FFF755FF224B224C234E15
:102C2000234F1D6033684434AB4207D82149224802
:102C300012F0CEFC002333600FB0F0BD54F8043C1A
:102C400038460D9354F8083C01350C9354F80C3C6D
:102C50000B9354F8103C0A9354F8143C099354F81D
:102C6000183C089354F81C3C079354F8203C0693F6
:102C700054F8243C059354F8283C049354F82C3C15
:102C8000039354F8303C029354F8343C019354F8C5
:102C9000383C009354F8441C54E9102312F098FC7B
:102CA000C0E700BF80B50534A0B505347CB5053458
:102CB0008F5D023440970134655E023430B50120E7
:102CC000ADF51B7D0DF0F0F80A2000F08BFB4022E3
:102CD0000021684612F0C4FD9022002112A812F0D3
:102CE000BFFD4FF4C872002136A812F0B9FD0124CF
:102CF0001023CDE910430823022513934FF000530E
:102D0000CDE91A5303231C93322310A8CDE91E34B6
:102D1000CDE92044289405F0C9FE30B14FF4DD71AF
:102D20001D4B1E4A1E4811F0A5FD7F234FF4403273
:102D300000934FF04073CDE90123C823CDE90D3056
:102D40000F934FF48013CDE90804CDE90A05CDE9CE
:102D50000330CDE905000C900790684606F0A8FA0C
:102D600020B140F2E1110C4B0C4ADBE70D4B002285
:102D700061934FF44003CDE936230B4B36A86293A1
:102D800006F098FE20B14FF4F771034B034AC9E7F0
:102D90000DF51B7D30BD00BF7C5E02349D5E0234AC
:102DA0008A5E0234140000031404000330B5A7B097
:102DB000982204460021684612F052FD4FF000535D
:102DC0000222CDE911230623012513937D236846B2
:102DD000CDE91535179505F069FE28B1D521094BC8
:102DE000094A0A4811F046FD4FF080532046C4E9D5
:102DF0000C3506F05DFA18B1DC21024B024AF0E70F
:102E000027B030BD7C5E0234235F02348A5E023418
:102E100070B5A6B0044698220021684612F020FD45
:102E20004FF000560223CDE91836042301251A93EA
:102E30004B236846CDE91C351E9505F037FE28B1B9
:102E4000F221084B084A094811F014FD2046C4E954
:102E50000E6506F02DFA18B1F921024B024AF2E78D
:102E600026B070BD7C5E0234005F02348A5E02349C
:102E700010B5A6B0044698220021684612F0F0FC76
:102E8000C8230022C4E90C23022323604FF04073BF
:102E90002046A36006F00CFA30B140F20B11094B4A
:102EA000094A0A4811F0E6FC01236846119305F02F
:102EB000FDFD20B140F20F11024B034AF1E726B0AD
:102EC00010BD00BF7C5E0234E35E02348A5E0234D1
:102ED00010B5A6B0044698220021684612F0C0FC46
:102EE000C8230022C4E90E23022323604FF040735D
:102EF0002046A36006F0DCF930B14FF49071094B25
:102F0000094A0A4811F0B6FC01236846189305F0F7
:102F1000CDFD20B14FF49271024B034AF1E726B088
:102F200010BD00BF7C5E0234C05E02348A5E023493
:102F30004FF000420A4B82B0C3F8602AD3F8601207
:102F400001910199C3F8A02AD3F8A0120091009929
:102F5000C3F8202A03F58053C3F8202202B070473B
:102F6000008002564FF00042024BC3F86022C3F8C3
:102F7000A02270470090025600B591B04022002177
:102F8000684612F06DFC684606F032FC6846FFF7B2
:102F90000DFF6846FFF73CFF11B05DF804FB70477A
:102FA00070477047FFF78ABE00B5E5B04FF4C872AE
:102FB0000021684612F054FC00231022CDE90023C2
:102FC0004FF40013329303236846239306F072FDF7
:102FD00048B900230822CDE900232823249068461D
:102FE000259306F067FD65B05DF804FB444B454A48
:102FF00070B501209A60022500224349434E01F535
:103000008054C1F8180AC4F81802C4F85802C3F86A
:10301000D820C3F8DC20C3F8E020C3F8D800C3F8F8
:10302000DC20C3F8E020C3F8D8500325C3F8DC2027
:10303000C3F8E020C3F8D8500425C3F8DC20C3F857
:10304000E020C3F8D8500525C3F8DC20C3F8E02001
:10305000C3F8D8500625C3F8DC20C3F8E020C3F835
:10306000D8500725C3F8DC20C3F8E020C3F8D850B7
:10307000C3F8DC20C3F8E020C1F8780AD1F8782240
:103080009A683261224AD56B45F48055D563D56B79
:1030900045F01005D563D26BD1F8742242F400429A
:1030A000C1F87422D1F8782242F01002C1F87822D7
:1030B000D1F87822D1F8782222F01002C1F87822D3
:1030C0004FF44052C1F8202AC4F820224022C1F80F
:1030D000240AC4F82402C4F86402C4F85C223269E9
:1030E000C4F87802D3F8882042F47002C3F888202C
:1030F000084AD2F8883043F47003C2F8883070BDB3
:1031000000ED00E00004003400800256008000560C
:103110000048025600ED02E07B4BF0B51A6A02F45B
:103120004012B2F5001F00F0D18008D8002A39D033
:10313000B2F5801F3CD00022744B1A60F0BDB2F58E
:10314000401FF8D1D3F8C42002F04052B2F1805FA2
:1031500036D0B2F1005F44D0002A52D1D3F880209B
:1031600012F0006402F0E04140F0B980D3F884002E
:10317000D3F88830C2F30B2520F07F400C46B4F121
:10318000005FC3F3C266C2F30551C3F3026300F0EC
:10319000948000F29D80002C47D0B4F1805F7CD0F9
:1031A000002249E09B6C5A4AC3F3C113DA40C3E7DB
:1031B0005B6C584A13F4007F574B08BF1A46BBE7B5
:1031C000D3F8902012F0006402F0E04140F08780D4
:1031D000D3F89400C2F30B25D3F8983020F07F4049
:1031E000CCE7D3F8A02012F0006402F0E04176D1E1
:1031F000D3F8A400C2F30B25D3F8A83020F07F4009
:10320000BCE7D3F8B02012F0006402F0E04166D1D0
:10321000D3F8B400C2F30B25D3F8B83020F07F40C8
:10322000ACE70B460E4608460D46374A976C384ABF
:10323000C7F3C117FA403CBB07EE100AB8EEC76AE5
:1032400007EE105A07EE902ADFED346AB8EEC77A1F
:10325000F8EEE77AA6EE267A67EE877A07EE101A7E
:10326000B8EEC77AC7EE876A07EE906AB8EEE77ADB
:1032700007EE903AF8EEE77A27EE277AC6EE877ADD
:10328000FCEEE77A17EE902A1F4BD3F8C430C3F355
:1032900007430133B2FBF3F24EE700241A4A1E4FF4
:1032A000526C12F4007F1B4A08BF3A46C3E7002362
:1032B0001E4618461D461946F0E70024184ABAE78C
:1032C00000231E4618461D461946F7E7144A33E701
:1032D000B4F1405F7FF464AF0024124AABE7B1F170
:1032E000005FEDD006D800299BD0B1F1805FDED021
:1032F0000022C9E7B1F1405FFAD100231E4618460B
:103300001D461946E9E700BF0080025654AD02345D
:103310000090D0030024F40000093D000000803339
:10332000006CDC020080BB006DED81CF00B5FFF7C3
:10333000F3FE054B5DF804EB18689FEC100A9FE85C
:103340000E90FDEC81CF744754AD023470470000FD
:1033500038B50F4B05461A780AB9012038BD4FF42D
:103360007A73B3FBF2F30B4A1068B0FBF3F000F092
:1033700003F904460028F0D10F2DEED80246294665
:103380004FF0FF3000F06CF8034B20461D60E5E77E
:1033900058AD023454AD02345CAD023410B5032094
:1033A00000F040F8FFF7B8FE0F20FFF7D1FF04460A
:1033B00018B9FFF7CBFF204610BD0124FBE7000042
:1033C000034A044B11681B780B441360704700BF1D
:1033D0007CD0053458AD0234014B1868704700BFEB
:1033E0007CD0053438B50446FFF7F6FF0546631C6C
:1033F0001EBF044B1B78E418FFF7EEFF431BA342EC
:10340000FAD338BD58AD02344FF0E022136923F0EF
:103410000203136170474FF0E022136943F0020387
:1034200013617047C31E042B10B5044603D9E6216F
:103430000948FEF731FE09492302CA6803F4E06334
:1034400022F4E0621204120C134343F0BF6343F40E
:103450000033CB6010BD00BF425F023400ED00E0DE
:1034600010F10C0F2DE9F04105460C46174601DB23
:10347000031D03D1FF212648FEF70EFE254BDE6813
:10348000C6F30226022E06D857B14FF481712048A8
:10349000FEF702FE04E00123F21E9340BB42F4D982
:1034A0000F2CC6F1070804D8012303FA08F3A3423E
:1034B00004D840F203111648FEF7EEFDB8F1040FF0
:1034C00006F1040328BF4FF004084FF0FF32062B2B
:1034D000A6F1030698BF002602FA08F824EA0803BA
:1034E000B24027EA0207B340002D43EA0703ACBF0E
:1034F00005F16045084A4FEA0313DBB2ABBF05F59F
:10350000614505F00F0585F800335355BDE8F0819E
:10351000425F023400ED00E014ED00E0002808DB1B
:1035200001234109054A00F01F00834042F8213081
:10353000704740F215110248FEF7AEBD00E100E011
:10354000425F023400280DDB01220949430900F0E3
:103550001F008240203341F82320BFF34F8FBFF379
:103560006F8F70474FF493710248FEF795BD00BF0F
:1035700000E100E0425F02340138B0F1807F0BD2FD
:103580004FF0E023F021054A586182F82310002013
:10359000072298611A6170470120704700ED00E032
:1035A000002809DB01224309064900F01F00824080
:1035B000603341F8232070474FF4D7710248FEF77B
:1035C0006BBD00BF00E100E0425F023438B5044645
:1035D000036869BBD3F8002522F00802C3F8002570
:1035E000FFF7FAFE0546FFF7F7FE401BB0F57A7FBE
:1035F00001D9012038BD2368D3F8F4231204F2D492
:10360000D3F8C025D40342BFD3F8C02522F48032BA
:10361000C3F8C025D3F8042422F00042C3F80424E0
:10362000D3F8F02322F447420020C3F8F023E1E767
:10363000012928D1D3F8002922F00802C3F8002973
:10364000FFF7CAFE0546FFF7C7FE401BB0F57A7FBD
:10365000CFD82368D3F8F4231002F4D4D3F8C029C8
:10366000D10342BFD3F8C02922F48032C3F8C02965
:10367000D3F8042822F00042C3F80428D3F8F0233A
:1036800022F40702D0E7D3F8002D22F00802C3F895
:10369000002DFFF7A1FE0546FFF79EFE401BB0F58B
:1036A0007A7FA6D82368D3F8F423002AF4DBD3F872
:1036B000042C22F00042C3F8042CD3F8C02DD2030E
:1036C00042BFD3F8C02D22F48032C3F8C02DD3F806
:1036D000F02322F00742A7E7F8B51446036871BB50
:1036E000D3F8042422F4C01242EAC442C3F80424EA
:1036F000234B022C1A6838D0032C39D0012C3AD134
:1037000042F040021A60FFF767FE4FF400360746AA
:103710001B4DA640FFF760FEC01BB0F57A7F2DD889
:10372000D5F8903036EA0303F4D14FF488530020E3
:10373000D5F88020A3401343C5F88030F8BD012997
:10374000D3F8042806D122F4C01242EAC442C3F8D6
:103750000428CDE7520341BFD3F8042C22F4C01251
:1037600042EAC442C3F8042CC2E742F48062C9E7CB
:1037700042F48042C6E742F00402C3E70120DDE7DD
:1037800000600058012930B54FF00205046810D1DF
:103790008571D4F800190B43C4F80039C4F8C42962
:1037A000D4F8F03343F4060343F02003C4F8F033B5
:1037B00030BD08444571D4F8001D0B43C4F8003DEA
:1037C000C4F8C42DD4F8F03343F00643ECE770B4EA
:1037D00015461E4699B9022301684371D1F80025A8
:1037E0003243C1F80025C1F8C455D1F8F03370BC9C
:1037F00043F4064343F02003C1F8F033704770BC34
:10380000FFF7C0BF022383710368D3F8042842F096
:103810000042C3F80428D3F8002942F00802C3F894
:103820000029704769B90368D3F8042442F00042C4
:10383000C3F80424D3F8002542F00802C3F8002599
:103840007047012901D1FFF7DDBF0368D3F8042CCD
:1038500042F00042C3F8042CD3F8002D42F00802D5
:10386000C3F8002D70470000184B10B55A69C9B253
:1038700042F480325A611A6942F001021A615A69AF
:1038800042F480325A6100221A615A615C695C61BB
:103890001C6944F001041C611A615C6944F48034C1
:1038A0005C611C6944F001041C615C69044344F4DC
:1038B00080345C611A615A61586901435961196920
:1038C00041F0010119611A6110BD00BF007000587C
:1038D00010B50446D8B103680E4A934208D002F1ED
:1038E0007042934204D04FF4A7710B48FEF7D4FB0B
:1038F000237913B920460DF01FF80323002023710C
:1039000001236071A071E071A060237110BD0120DE
:10391000FCE700BF002000588A5F023438B5054636
:1039200038B300240368D3F80422D20755BFD3F874
:103930000421D3F8042222F4804222F0010254BF71
:10394000C3F80421C3F80422C3F80444C3F80448AC
:10395000C3F8044C084B5C601A6822F001021A603C
:103960000DF026F82046AC602C716C71AC71EC71D6
:1039700038BD0120FCE700BF006000582DE9F04190
:103980000546FEB00C464FF4FC726846544912F0EE
:10399000EEF91DB901207EB0BDE8F081002CF9D010
:1039A0002B68504A934208D002F17042934204D0EF
:1039B00040F28B214C48FEF76FFB2368B3F5807F04
:1039C00007D0B3F5007F04D04FF423714648FEF7CB
:1039D00063FB6368013B012B04D940F28D2142480F
:1039E000FEF75AFBA3683E2B04D940F28E213E48D5
:1039F000FEF752FB3D4B1A6822F001021A60616823
:103A000001291AD1226842F404121A671A6842F096
:103A100001021A60D3F8802042F0B04242F404124E
:103A2000C3F880202268B2F5807FD3F8842054D177
:103A3000012908D142F01F0207E00229AAD1226819
:103A400042F49012E1E742F4F8520026284DC3F800
:103A500084202B68254F23F002032B607E602B69A6
:103A6000012043F001032B61FFF7BCFC2E61D4F869
:103A70000880AB685DF8382023F4FE4343EA022354
:103A800043F02803AB60382108201602FFF7ECFE54
:103A90001121E420FFF7E8FE0DEBC803D3F8048002
:103AA000E3204FEA182146F48036FFF7DDFE46F0AA
:103AB0002806E3205FFA88F1FFF7D6FEAE602368A0
:103AC0000020B3F5807F0CBF07230F237B602B689A
:103AD00043F002032B6068605DE742F4F852A9E707
:103AE00060970134002000588A5F0234006000585B
:103AF0000070005870B50D461446064608B90120FE
:103B000070BD002AFBD00368524A934208D002F1EC
:103B10007042934204D04FF444714F48FEF7BCFA10
:103B2000022D04D940F211314B48FEF7B5FA236853
:103B300033F4403304D040F212314748FEF7ACFA78
:103B4000022D23681ED033F4403304D040F21631E6
:103B50004148FEF7A1FA2368B3F5803F02D0B3F5E0
:103B6000003F0FD1A368222B0CD0183B152B04D893
:103B70003A4A22FA03F3DA0704D440F21B313648FA
:103B8000FEF78AFA2368B3F5403F0FD06368222B13
:103B90000CD0183B152B04D8304A22FA03F3DB076C
:103BA00004D440F221312C48FEF776FA3379013BF8
:103BB000012B2ED82268B2F5403F45D0B2F5003F28
:103BC0002BD1002D9BD113466168B2F5803F43EAAB
:103BD0000103316802D0B2F5003F04D1022D2BD091
:103BE000A26843EA0223EDB931681D4AD1F8040402
:103BF00002401A43C1F804243368D3F8042122F4A4
:103C00008042C3F80421D3F8042242F00102C3F831
:103C1000042202230020337172E7022D14BF1346E1
:103C20000023D1E7012D07D1D1F804080C4A024046
:103C30001A43C1F80428DFE7D1F8042C22F03F0230
:103C40001343C1F8043CD7E7002D7FF458AF134667
:103C5000CAE700BF002000588A5F0234C31B3C0043
:103C6000C0C0FCFF032970B506460D46144604D9B2
:103C70004FF472711548FEF70FFA062C04D940F282
:103C8000C9311248FEF708FAF6B1032D08D8DFE86B
:103C900005F002090F150E4B240244F001041C61CB
:103CA000002070BD0A4B240244F001041C62F7E7B7
:103CB000074B240244F001041C63F1E7044B240287
:103CC00044F001041C64EBE70120EAE78A5F023458
:103CD00000600058F8B50D461446064608B90120A4
:103CE000F8BD002AFBD00368474A934208D002F18E
:103CF0007042934204D040F202414448FEF7CCF9AE
:103D0000022D04D940F203414048FEF7C5F923686B
:103D1000032B04D940F204413C48FEF7BDF9BDB97C
:103D2000711948793379C0B2022BDAB2D7D110F0C9
:103D3000FB00D4D14A713368276815BBD3F800253E
:103D400022F003023A43C3F8002501234B71C7E771
:103D5000A368092B04D940F207412C48FEF79CF9CF
:103D600063681A0702D1B3F5004F04D34FF48161A1
:103D70002648FEF791F9022DD2D1A368062BCFD9A0
:103D8000ADE7012DD4E9014626D1D3F80029204D15
:103D900022F003023A43C3F80029D3F8C02922F0E5
:103DA0000F023243C3F8C029D3F8CC292A4022435A
:103DB000C3F8CC29F21F012A06D8D3F8DC292A40FF
:103DC0002243C3F8DC29C0E7092EBED1D3F8DC2991
:103DD0002A4042EA5402F4E7D3F8002D22F003020D
:103DE0003A43C3F8002DD3F8C02D22F00F0232431E
:103DF000C3F8C02DD3F8CC2D22F4FF4222F07F026D
:103E00002243C3F8CC2DA0E7002000588A5F02347B
:103E10000080FFFF2DE9F041022904460D461646B9
:103E20001F46DDF8188004D94FF4C2611A48FEF726
:103E300033F9032E04D940F211611748FEF72CF92B
:103E400038F0040304D040F212611348FEF724F95D
:103E50001CB901263046BDE8F0813A07F9D1236844
:103E60006219D3F804325279012AF2D1DB07F0D576
:103E7000324629462046FFF72FFC06460028E8D1A7
:103E80002946204643463A46FFF7A1FC29462046EC
:103E9000FFF7C8FCDEE700BF8A5F023402292DE984
:103EA000F84305460E46144604D94FF4CD6129481F
:103EB000FEF7F2F8032C04D940F269612548FEF7B9
:103EC000EBF81DB901252846BDE8F8832B68D3F827
:103ED0000432DB07F6D5AF197B79002BF2D02846E8
:103EE0003146FFF773FB05460028EBD11A4B022C35
:103EF0001A6826D0032C27D0012C28D142F080024A
:103F00001A60FFF769FA4FF400388146124E08FA3A
:103F100004F8FFF761FAA0EB0900B0F57A7FD1D879
:103F2000D6F8903038EA0303F3D04FF48852D6F82D
:103F30008030A24023EA0203C6F8803001237B715F
:103F4000C1E742F40062DBE742F40042D8E742F006
:103F50000802D5E78A5F0234006000587047704756
:103F600070477047036870B5D3F8F863044672046D
:103F7000D3F8F05312D5690410D5D3F8F0230021FB
:103F800022F48042C3F8F023826842F00402826087
:103F90004FF48042C3F8FC23FFF7E1FF72050AD516
:103FA0006B0508D54FF48062236800212046C3F8D2
:103FB000FC230CF0A1FCB00516D5A90514D5236887
:103FC000D3F80025520707D5D3F8F02322F4064290
:103FD000C3F8F023012262714FF4007200212046E1
:103FE000C3F8FC230CF098FCF3050AD5E80508D5C6
:103FF0004FF48072236800212046C3F8FC23FFF7AA
:10400000ADFF310416D52A0414D523680021D3F856
:10401000F023204622F40042C3F8F023A26842F0C5
:104020000802A2604FF40042C3F8FC23042363712A
:10403000FFF796FFF3030AD5E80308D54FF4803263
:10404000236801212046C3F8FC23FFF787FF710393
:104050000AD56A0308D54FF480222368012120463F
:10406000C3F8FC230CF048FCB30316D5A80314D501
:104070002368D3F80029510707D5D3F8F02322F499
:104080000602C3F8F0230122A2714FF4003201218D
:104090002046C3F8FC230CF03FFC320216D52B025D
:1040A00014D523680121D3F8F023204622F400021E
:1040B000C3F8F023A26842F01002A2604FF400029D
:1040C000C3F8FC230423A371FFF74AFFF0010AD5CC
:1040D000E90108D54FF08072236802212046C3F819
:1040E000FC23FFF73BFF72010AD56B0108D54FF0A7
:1040F0008062236802212046C3F8FC230CF0FCFBFD
:10410000B00116D5A90114D52368D3F8002D5207A4
:1041100007D5D3F8F02322F00642C3F8F02301229A
:10412000E2714FF0007202212046C3F8FC230CF02C
:10413000F3FB002E16DA002D14DA23680221D3F8DF
:10414000F023204622F00042C3F8F023A26842F098
:104150002002A2604FF00042C3F8FC230423E37165
:10416000FFF7FEFE700614D5690612D523682046B7
:10417000D3F8F02322F04002C3F8F023A26842F003
:104180000202A2604022C3F8FC2304232371FFF73C
:10419000E8FEB20614D5AB0612D523682046D3F844
:1041A000F02322F02002C3F8F023A26842F00102BB
:1041B000A2602022C3F8FC2304232371FFF7D1FE61
:1041C00070BD7047704770477047704770477047C1
:1041D000B54B2DE9F041D3F890600446B202D3F814
:1041E0009480D3F88050D3F884700DD5A9020BD5F4
:1041F000D3F8802022F40012C3F880204FF400127C
:10420000C3F80021FFF7DEFF320715D52B0713D5C2
:1042100023680321D3F80035204613F0040FA24B86
:104220001EBFD3F8802022F00802C3F880200822A5
:10423000C3F80021FFF7CBFF700715D5690713D529
:1042400023680221D3F80035204613F0040F964B63
:104250001EBFD3F8802022F00402C3F8802004227D
:10426000C3F80021FFF7B3FFB20715D5AB0713D58D
:1042700023680121D3F80035204613F0040F8A4B40
:104280001EBFD3F8802022F00202C3F88020022251
:10429000C3F80021FFF79BFFF00715D5E90713D5F9
:1042A00023680021D3F80035204613F0040F7E4B1D
:1042B0001EBFD3F8802022F00102C3F88020012223
:1042C000C3F80021FFF783FF320416D52B0414D561
:1042D00023680321D3F80035204613F0040F724BF6
:1042E0001EBFD3F8802022F40042C3F880204FF490
:1042F0000042C3F80021FFF767FF700416D5690478
:1043000014D523680221D3F80035204613F0040F9A
:10431000654B1EBFD3F8802022F48042C3F8802072
:104320004FF48042C3F80021FFF74EFFB20416D5C8
:10433000AB0414D523680121D3F80035204613F0CF
:10434000040F594B1EBFD3F8802022F40052C3F84B
:1043500080204FF40052C3F80021FFF735FFF0042E
:1043600016D5E90414D523680021D3F8003520467A
:1043700013F0040F4C4B1EBFD3F8802022F4805260
:10438000C3F880204FF48052C3F80021FFF71CFFD0
:10439000320516D52B0514D523680321D3F8003533
:1043A000204613F0040F404B1EBFD3F8802022F4A8
:1043B0000062C3F880204FF40062C3F80021FFF7C9
:1043C00004FF700516D5690514D523680221D3F8BA
:1043D0000035204613F0040F334B1EBFD3F8802066
:1043E00022F48062C3F880204FF48062C3F8002179
:1043F000FFF7EBFEB20516D5AB0514D523680121F6
:10440000D3F80035204613F0040F274B1EBFD3F816
:10441000802022F40072C3F880204FF40072C3F8A9
:104420000021FFF7D2FEF00516D5E90514D5236863
:104430000021D3F80035204613F0040F1A4B1EBF9D
:10444000D3F8802022F48072C3F880204FF4807269
:10445000C3F80021FFF7B9FE320615D52B0613D598
:1044600023680321D3F80035204613F0040F0E4BC8
:104470001EBFD3F8802022F08002C3F88020802263
:10448000C3F80021FFF7A2FE700619D5690617D5FB
:1044900023680221D3F80035204613F0040F024BA5
:1044A00018BFD3F8802001E0006000581CBF22F044
:1044B0004002C3F880204022C3F80021FFF786FEA7
:1044C000B20615D5AB0613D523680121D3F8003504
:1044D000204613F0040FB94B1EBFD3F8802022F002
:1044E0002002C3F880202022C3F80021FFF76EFECF
:1044F000F00615D5E90613D523680021D3F8003559
:10450000204613F0040FAD4B1EBFD3F8802022F0DD
:104510001002C3F880201022C3F80021FFF756FED6
:10452000720013D56B0011D5A44B2046D3F8802020
:1045300022F08042C3F880204FF08042C3F800216F
:10454000A36843F48073A360FFF70BFDB00013D59D
:10455000A90011D5994B2046D3F8802022F00052B3
:10456000C3F880204FF00052C3F80021A36843F441
:104570000073A360FFF7F5FCF20013D5EB0011D533
:104580008E4B2046D3F8802022F08052C3F8802042
:104590004FF08052C3F80021A36843F48063A36006
:1045A000FFF7DFFC300113D5290111D5834B2046DD
:1045B000D3F8802022F00062C3F880204FF0006220
:1045C000C3F80021A36843F40063A360FFF7C9FCAC
:1045D000720113D56B0111D5784B2046D3F880209A
:1045E00022F08062C3F880204FF08062C3F800217F
:1045F000A36843F48053A360FFF7B3FCB00113D565
:10460000A90111D56D4B2046D3F8802022F000720D
:10461000C3F880204FF00072C3F80021A36843F470
:104620000053A360FFF79DFCF20113D5EB0111D5F8
:10463000624B2046D3F8802022F08072C3F880209D
:104640004FF08072C3F80021A36843F48043A36055
:10465000FFF787FC18F0010F14D0F80712D50121DD
:10466000564B2046D3F8802022F00102C3F8802068
:10467000C3F80411A36843F40023A3600423237147
:10468000FFF79FFD18F0020F15D0B90713D54B4B5C
:104690000121D3F88020204622F00202C3F88020B6
:1046A0000222C3F80421A36843F48023A3600423F7
:1046B0002371FFF786FD18F0040F13D07A0711D588
:1046C0003E4B0121D3F88020204622F00402C3F89B
:1046D00080200422C3F80421A36843F40033A360BC
:1046E000FFF76FFD18F0080F13D03B0711D5334BC0
:1046F0000121D3F88020204622F00802C3F8802050
:104700000822C3F80421A36843F48033A360FFF7B1
:1047100058FD18F0100F13D0F80611D5274B0121C2
:10472000D3F88020204622F01002C3F88020102207
:10473000C3F80421A36843F40043A360FFF741FDDD
:1047400018F4807F16D0F90514D51C4B0221D3F83C
:104750008020204622F48072C3F880204FF48072BB
:10476000C3F80421A36843F40023A3600423237146
:10477000FFF727FD18F4007F16D0BA0514D50F4BAC
:104780000221D3F88020204622F40072C3F8802052
:104790004FF40072C3F80421A36843F48023A3609C
:1047A00004232371FFF70DFD18F4806F17D07B05EC
:1047B00015D5024B0221D3F8802001E0006000589B
:1047C000204622F48062C3F880204FF48062C3F850
:1047D0000421A36843F40033A360FFF7F2FC18F44C
:1047E000006F14D0380512D51F4B0221D3F880205A
:1047F000204622F40062C3F880204FF40062C3F820
:104800000421A36843F48033A360FFF7DAFC18F4B3
:10481000805F14D0F90412D5134B0221D3F8802005
:10482000204622F48052C3F880204FF48052C3F80F
:104830000421A36843F40043A360FFF7C2FCF20322
:104840000FD5EB030DD5084B2046D3F8802022F47A
:104850008032C3F880204FF48032C3F80021FFF784
:10486000B2FCBDE8F08100BF0060005870B50E4694
:104870001446054608B9012070BD002AFBD0022964
:1048800004D940F6EF614A48FDF706FC236933F08E
:10489000804304D04FF46F614548FDF7FDFB63682A
:1048A000B3F5805F04D340F6F1614148FDF7F4FBB6
:1048B00040F6FE72E368013B934204D940F6F26190
:1048C0003B48FDF7E9FB40F6FE72A368013B9342CB
:1048D00004D940F6F3613648FDF7DEFB2368B3F5F3
:1048E000805F04D340F6F4613148FDF7D5FB2B79A6
:1048F000022BC0D13EBB2A682E4BD2F804110B40CC
:10490000B3F5804FB7D0D4E90003D2F8041543EAD9
:10491000004301F0F0210B43C2F80435D2F808152A
:10492000D4E9033021F09F41034321F4FE01A06844
:1049300021F47F6143EA004321F00F010B43C2F8E9
:104940000835002098E7012E17D1D4E900032A6822
:1049500043EA0043D2F8041901F0F0210B43C2F8F6
:104960000439D2F80819D4E9020301F0F02143EA2E
:1049700000430B43C2F80839E3E7022E7FF47BAF14
:10498000D4E900032A6843EA0043D2F8041D01F089
:10499000F0210B43C2F8043DD2F8081DD4E902030C
:1049A00001F0F02143EA00430B43C2F8083DC8E799
:1049B0008A5F02340040FF00022938B505460C46E4
:1049C00004D940F63F711A48FDF766FB6DB32B79A9
:1049D000022B2AD17CB92B68164AD3F804110A405D
:1049E000B2F5804F21D0D3F8082542F00042C3F839
:1049F0000825002038BD012C0DD12B682046D3F8A6
:104A00002028B2F5004FF5D0D3F8082942F0004233
:104A1000C3F80829EDE7022C07D12A68D2F8083D2F
:104A200043F00043C2F8083DE3E70120E2E700BF9E
:104A30008A5F02340040FF00022908B506D940F61B
:104A40007E711048FDF728FB01200AE00028FBD00A
:104A5000036839B9D3F8082522F00042C3F80825C5
:104A6000002008BD01290BBFD3F80829D3F8082D71
:104A700022F0004222F000420CBFC3F80829C3F81C
:104A8000082DEDE78A5F0234022970B505460E460F
:104A9000144604D941F252011848FDF7FDFA226884
:104AA00052B1182A03D8164BD340DA0704D441F286
:104AB00053011248FDF7F0FA626852B1062A03D892
:104AC0005423D340DB0704D441F254010B48FDF7D3
:104AD000E3FA8DB12B79022B0ED1012E0CD1D4E942
:104AE0000030034300202968D1F8302822F01E024C
:104AF0001343C1F8303870BD0120FCE78A5F0234EF
:104B000000010101022908B506D941F27A010948DC
:104B1000FDF7C2FA012008BD0028FBD00129F9D118
:104B200002680020D2F8303843F00103C2F8303870
:104B3000F1E700BF8A5F023470B50E4614460546A1
:104B400008B9012070BD022904D941F2BC011E48F8
:104B5000FDF7A2FA226852B1182A03D81B4BD340A2
:104B6000DA0704D441F2BD011748FDF795FA6268EF
:104B700052B1062A03D85423D340DB0704D441F2B0
:104B8000BE011148FDF788FA2B79022BD9D1012EED
:104B90000CD1D4E9003029680343D1F80C2922F064
:104BA0001E021343C1F80C390020CBE7022EC8D1F6
:104BB000D4E9003029680343D1F80C2D22F01E02FD
:104BC0001343C1F80C3DEFE78A5F02340001010195
:104BD00008B530B1022906D941F2E9010C48FDF7C8
:104BE0005BFA012009E0012908D10268D2F80C39EA
:104BF00043F00103C2F80C39002008BD0229F0D1AE
:104C00000268D2F80C3D43F00103C2F80C3DF3E713
:104C10008A5F023408B530B1022906D941F20A117F
:104C20000C48FDF739FA012009E0012908D1026892
:104C3000D2F80C3923F00103C2F80C39002008BD6A
:104C40000229F0D10268D2F80C3D23F00103C2F82A
:104C50000C3DF3E78A5F023470B50E4614460546F4
:104C600008B9012070BD002AFBD0022904D941F205
:104C700034113F48FDF710FA6369803BB3F5607F5C
:104C800004D341F235113A48FDF706FA2369803B17
:104C9000B3F5607F04D341F236113548FDF7FCF9D6
:104CA000E368B3F5803F04D341F237113048FDF794
:104CB000F3F9A368B3F5803F04D341F238112C48CF
:104CC000FDF7EAF96368B3F5805F04D341F2391167
:104CD0002748FDF7E1F92368B3F5805F04D341F27B
:104CE0003A112348FDF7D8F92B79022BB9D1012EBF
:104CF0001ED1D4E904022B6842EA0042D3F810190D
:104D000001F0FC210A43C3F81029D4E9021242EA57
:104D10000142C3F81429D3F81819D4E9000201F0AC
:104D2000F02142EA00420A43C3F81829002099E71B
:104D3000022E96D1D4E904022B6842EA0042D3F84D
:104D4000101D01F0FC210A43C3F8102DD4E9021212
:104D500042EA0142C3F8142DD3F8181DD4E9000229
:104D600001F0F02142EA00420A43C3F8182DDDE7C2
:104D70008A5F023408B530B1022906D941F27A11AE
:104D80000C48FDF789F9012009E0012908D10268E2
:104D9000D2F8103943F00043C2F81039002008BDA2
:104DA0000229F0D10268D2F8103D43F00043C2F866
:104DB000103DF3E78A5F023408B530B1022906D905
:104DC00041F2BC110C48FDF767F9012009E0012907
:104DD00008D10268D2F8703943F00103C2F8703983
:104DE000002008BD0229F0D10268D2F8703D43F0DE
:104DF0000103C2F8703DF3E78A5F023408B530B1B1
:104E0000022906D941F2DD110C48FDF745F90120D0
:104E100009E0012908D10268D2F8703923F00103B2
:104E2000C2F87039002008BD0229F0D10268D2F81A
:104E3000703D23F00103C2F8703DF3E78A5F02344E
:104E400038B5134A0368044693420D4608D002F170
:104E50007042934204D041F2F8110E48FDF71CF95C
:104E6000022D06D941F2F9110A48FDF715F9002083
:104E700038BD012D05D12368D3F8700900F0010079
:104E8000F6E7022DF3D12368D3F8700DF6E700BFE3
:104E9000002000588A5F023470B50E46144605465D
:104EA00008B9012070BD002AFBD0022904D941F2C3
:104EB0001E212448FDF7F0F8A26852B1062A03D853
:104EC0005423D340DB0704D441F21F211D48FDF7D2
:104ED000E3F8E368072B04D94FF491511948FDF723
:104EE000DBF82368072B04D941F221211548FDF78F
:104EF000D3F86368072B04D941F222211148FDF74A
:104F0000CBF82369072B04D941F223210D48FDF783
:104F1000C3F8012EC5D1D4E903231B0743EA02439A
:104F2000A268296813432268D1F8700843EA025343
:104F3000626843EA0263044A024013430020C1F856
:104F40007038AFE78A5F0234F9FF888808B530B15E
:104F5000022906D941F24A210748FDF79DF80120B0
:104F600008BD0129FBD102680020D2F8703843F057
:104F70000103C2F87038F3E78A5F023408B530B134
:104F8000022906D941F267210748FDF785F801207B
:104F900008BD0129FBD102680020D2F8703823F047
:104FA0000103C2F87038F3E78A5F0234F8B50F46A0
:104FB00015461C46064608B90120F8BD022904D949
:104FC00041F289211048FDF767F8072D04D941F215
:104FD0008A210D48FDF760F8B4F5805F04D341F2F3
:104FE0008B210948FDF758F8012FE5D1326844EAD2
:104FF0000534D2F82038002023F4FF4323F07F0348
:105000001C43C2F82048D8E78A5F023450B1012916
:1050100008D102680020D2F8203843F40043C2F8D7
:10502000203870470120704750B1012908D102682B
:105030000020D2F8203823F40043C2F8203870470B
:105040000120704770B50E461446054608B9012088
:1050500070BD022918D941F2EA210D48FDF71CF86C
:10506000072CF4D941F2EB210948FDF715F8012E80
:10507000EDD129680020D1F8243823F00E0343EA4B
:105080004403C1F82438E3E7072AF0D9EAE700BF70
:105090008A5F023408B530B1022906D941F20831DD
:1050A0000748FCF7F9FF012008BD0129FBD1026880
:1050B0000020D2F8243843F00103C2F82438F3E783
:1050C0008A5F023408B530B1022906D941F2253190
:1050D0000748FCF7E1FF012008BD0129FBD1026868
:1050E0000020D2F8243823F00103C2F82438F3E773
:1050F0008A5F0234022910B5044604D941F23B31DB
:105100000448FCF7C9FF2368D3F82408C0F3420021
:1051100010BD00BF8A5F023438B5104A03680446E8
:1051200093420D4608D002F17042934204D041F2FE
:1051300048310B48FCF7B0FF022D06D941F2493146
:105140000748FCF7A9FF002038BD012DFBD12368DB
:10515000D3F8240800F00100F6E700BF0020005853
:105160008A5F023438B51546044608B9012038BDB7
:10517000002AFBD0022904D941F266310648FCF727
:105180008BFF2379022BF1D123680020D3F8283834
:10519000C3F30B032B60EAE78A5F023470B50E4657
:1051A0001446054608B9012070BD002AFBD002292B
:1051B00004D941F225419848FCF76EFF2378012B72
:1051C00004D941F226419448FCF766FF637813F056
:1051D000FD0F04D041F227418F48FCF75DFFB4F981
:1051E0000230B3F5006F04DB41F228418A48FCF736
:1051F00053FFB4F90430B3F5006F04DB41F22941E9
:105200008548FCF749FFB4F90630B3F5006F04DBBD
:1052100041F22A418048FCF73FFFB4F90830B3F56A
:10522000006F04DB41F22B417B48FCF735FFB4F9FA
:105230000A30B3F5006F04DB41F22C417648FCF7ED
:105240002BFFB4F90C30B3F5006F04DB41F22D41B4
:105250007148FCF721FFB4F90E30B3F5006F04DBA1
:1052600041F22E416C48FCF717FFB4F91030B3F54A
:10527000006F04DB41F22F416748FCF70DFFB4F9E2
:105280001230B3F5006F04DB41F230416248FCF7A5
:1052900003FFB4F91430B3F5006F04DB41F2314180
:1052A0005D48FCF7F9FEB4F91630B3F5006F04DB86
:1052B00041F232415848FCF7EFFEB4F91830B3F52B
:1052C000006F04DB41F233415348FCF7E5FE012E49
:1052D0007FF469AF2B682078D3F88018627821F0CA
:1052E000060142EA80020A43C3F88028B4F902208A
:1052F00090B2C2F30A01002AB4F90420B8BF0846EC
:10530000C2F30A05002A91B2B8BF2946D3F884280F
:1053100002F0F822024342EA0142C3F88428B4F9B9
:10532000062095B2C2F30A01002AB4F90820B8BFDA
:105330000D46C2F30901002A90B2B8BF0846D3F85F
:10534000882836490A402A4342EA0042C3F888289E
:10535000B4F90C2095B2C2F30A00002AB4F90A206D
:10536000B8BF0546C2F30A06002A90B2B8BF30465D
:10537000D3F88C2802F0F82242EA05420243C3F82F
:105380008C28B4F90E2095B2C2F30A00002AB4F9B1
:105390001020B8BF0546C2F30906002A90B2B8BF74
:1053A0003046D3F890280A402A4342EA0042C3F824
:1053B0009028B4F9122095B2C2F30A00002AB4F979
:1053C0001420B8BF0546C2F30A06002A90B2B8BF3F
:1053D0003046D3F8942802F0F8222A4342EA0042E9
:1053E000C3F89428B4F91620C2F30A0095B2002A33
:1053F000B4F91820B8BF0546C2F30904002A90B2D8
:10540000B8BF2046D3F898280A402A4342EA00420F
:10541000C3F898280020C7E68A5F023400F800FC31
:1054200008B530B1022906D941F27B410748FCF7A3
:1054300033FE012008BD0129FBD102680020D2F80B
:10544000803843F00103C2F88038F3E78A5F023402
:1054500008B530B1022906D941F297410748FCF757
:105460001BFE012008BD0129FBD102680020D2F8F3
:10547000803823F00103C2F88038F3E78A5F0234F2
:1054800010B500B10AB9012010BD022905D941F2B9
:105490005B510B48FCF700FEF5E70129F3D10068EA
:1054A00053781478D0F8401892781B0443EA0463C8
:1054B00043EA0223CAB21343C0F840380020E3E7AE
:1054C0008A5F023408B530B1022906D941F27A5117
:1054D0000748FCF7E1FD012008BD0129FBD1026866
:1054E0000020D2F8403843F00103C2F84038F3E717
:1054F0008A5F023408B530B1022906D941F29651CB
:105500000748FCF7C9FD012008BD0129FBD102684D
:105510000020D2F8403823F00103C2F84038F3E706
:105520008A5F0234F8B50F4615461C46064608B990
:105530000120F8BD002BFBD0022904D941F2E9512A
:105540002A48FCF7A9FD6B1E022B04D941F2EA514F
:105550002648FCF7A1FDA3686BB1043B082B05D8D6
:1055600040F2111222FA03F3DB0704D441F2EB51AB
:105570001E48FCF791FD636833F0300306D0402BE2
:1055800004D041F2EC511948FCF786FD236833F052
:10559000800304D041F2ED511448FCF77DFD012F4A
:1055A000C6D1D4E900321343A268012D316843EA21
:1055B000020309D0022D10D0D1F8582822F0FC02A5
:1055C0001343C1F8583806E0D1F8502822F0FC0205
:1055D0001343C1F850380020ABE7D1F8542822F02B
:1055E000FC021343C1F85438F5E700BF8A5F023468
:1055F00070B50E461446054608B9012070BD002A54
:10560000FBD0022904D941F21F612148FCF744FD77
:105610006368B3F5805F04D34FF4B1511C48FCF7C5
:105620003BFD2368B3F5805F04D341F22161184844
:10563000FCF732FDE368B3F5805F04D341F22261E9
:105640001348FCF729FDA368B3F5805F04D341F24A
:1056500023610F48FCF720FD012ECED1D4E90003D1
:105660002A6843EA0043D2F85C1801F0F0210B43AA
:10567000C2F85C38D2F86018D4E9020301F0F021D6
:1056800043EA00430B430020C2F86038B6E700BF8E
:105690008A5F023470B50E461546044608B90120EB
:1056A00070BD022904D941F247611548FCF7F4FCAA
:1056B0006B1E022B0ED941F248611148FCF7ECFC3D
:1056C000012EECD12268D2F8583843F00103C2F819
:1056D000583813E0012EE2D1012D236808D0022DA5
:1056E000F0D1D3F8542842F00102C3F8542805E061
:1056F000D3F8502842F00102C3F850280020CFE729
:105700008A5F023408B530B1022906D941F29F619F
:105710000748FCF7C1FC012008BD0129FBD1026844
:105720000020D2F8603843F00043C2F86038F3E755
:105730008A5F023470B50E461446054608B901204A
:1057400070BD002AFBD0022904D941F2DB611D485B
:10575000FCF7A2FC2378072B04D941F2DC6119483D
:10576000FCF79AFCA378072B04D941F2DD611548B8
:10577000FCF792FC2379072B04D941F2DE61114832
:10578000FCF78AFC012EDAD129686378D1F8442825
:1057900020781B0522F0FF4243EA007322F4E00266
:1057A0001343C1F84438E378A2781B0543EA027337
:1057B0002279002043EA0233627943EA0213C1F8F6
:1057C0004838BDE78A5F023408B530B1022906D9EE
:1057D00041F201710748FCF75FFC012008BD012977
:1057E000FBD102680020D2F8443843F00103C2F82C
:1057F0004438F3E78A5F023408B530B1022906D98C
:1058000041F21D710748FCF747FC012008BD012942
:10581000FBD102680020D2F8443823F00103C2F81B
:105820004438F3E78A5F023470B50E4614460546E5
:1058300008B9012070BD002AFBD0022904D941F229
:105840003B713948FCF728FC23783F2B04D941F2FF
:105850003C713548FCF720FC63783F2B04D941F2BA
:105860003D713148FCF718FCA3783F2B04D941F275
:105870003E712D48FCF710FCE3783F2B04D941F230
:105880003F712948FCF708FC23793F2B04D94FF4DA
:10589000BA512548FCF700FC63793F2B04D941F24B
:1058A00041712148FCF7F8FBA3793F2B04D941F261
:1058B00042711D48FCF7F0FBE3793F2B04D941F21C
:1058C00043711948FCF7E8FB237A3F2B04D941F2D6
:1058D00044711548FCF7E0FB012EAAD12A68217813
:1058E000D2F8A038002023F4FC4343EA4123C2F855
:1058F000A038A37861785B0443EA4163E17843EA26
:105900004123217943EA4103C2F8A438A37961799C
:105910005B0443EA4163E17943EA4123217A43EAA4
:105920004103C2F8A83885E78A5F023408B530B170
:10593000022906D941F26C710748FCF7ADFB012042
:1059400008BD0129FBD102680020D2F8A03843F03D
:105950000103C2F8A038F3E78A5F023408B530B11A
:10596000022906D941F288710748FCF795FB01200E
:1059700008BD0129FBD102680020D2F8A03823F02D
:105980000103C2F8A038F3E78A5F023470B50E460F
:105990001446054608B9012070BD022904D941F218
:1059A000D2711448FCF778FB230702D1B4F5004FFD
:1059B00004D341F2D3710F48FCF76EFB012E0BD1DB
:1059C0002A68D2F8CC3923F4FF4323F07F03234322
:1059D000C2F8CC390020DFE7022EDCD12A68D2F8E9
:1059E000CC3D23F4FF4323F07F032343C2F8CC3D97
:1059F000F0E700BF8A5F023470B50E4614460546D4
:105A000008B9012070BD022917D941F2F671124878
:105A1000FCF742FB092CF4D941F2F7710E48FCF770
:105A20003BFB012E0CD12A68D2F8C03923F00F03BA
:105A30002343C2F8C0390020E4E7092AF1D9EBE793
:105A4000022EDED12A68D2F8C03D23F00F03234393
:105A5000C2F8C03DEFE700BF8A5F0234022938B5C3
:105A600004460D4604D941F639110F48FCF714FBE2
:105A7000BCB12379022B08D1012D08D12268D2F8BC
:105A8000C03943F01003C2F8C039002038BD022DE0
:105A900007D12268D2F8C03D43F01003C2F8C03DE0
:105AA000F3E70120F2E700BF8A5F0234022938B52C
:105AB00004460D4604D941F65B110F48FCF7ECFA99
:105AC000BCB12379022B08D1012D08D12268D2F86C
:105AD000C03923F01003C2F8C039002038BD022DB0
:105AE00007D12268D2F8C03D23F01003C2F8C03DB0
:105AF000F3E70120F2E700BF8A5F0234022908B50C
:105B000006D941F67D210A48FCF7C6FA012008BDF6
:105B1000FCD10368D3F8042CD3F804180A43F5D455
:105B2000D3F80428002022F48022C3F80428EEE7EA
:105B30008A5F0234F8B50E4615461C46074608B97A
:105B40000120F8BD002BFBD0022904D94FF4E0510D
:105B50001048FCF7A1FA6B1E022B08D941F601414F
:105B60000C48FCF799FA012EEAD10020E9E7012E52
:105B7000E6D1022D3B6807D0032D08D0D3F8643856
:105B800023F07F432360F0E7D3F86838F8E7D3F8D1
:105B90006C38F5E78A5F0234022970B405D970BC0D
:105BA00041F61F514A48FCF777BA012940F08D8031
:105BB0000368D3F88018C1F3800001F0020110706F
:105BC0005170D3F884484349C4F30A4040EA0105C0
:105BD00014F0806F18BF2846D3F884489080C4F32F
:105BE0000A0040EA010514F4806F18BF2846D3F874
:105BF000885850803848C5F3094444EA000615F037
:105C0000007F18BF3446D3F888581481C5F30A04BE
:105C100044EA010615F4806F18BF3446D3F88C5857
:105C2000D480C5F30A4444EA010615F0806F18BF1A
:105C30003446D3F88C589481C5F30A0444EA01062B
:105C400015F4806F18BF3446D3F890585481C5F3CB
:105C5000094444EA000615F0007F18BF3446D3F823
:105C600090581482C5F30A0444EA010615F4806FC3
:105C700018BF3446D3F89858D481C5F3094420435B
:105C800015F0007F18BF04461483D3F89848C4F376
:105C90000A0040EA010514F4806F18BF2846D3F8C3
:105CA0009448D082C4F30A4040EA010514F0806FA2
:105CB00018BF28469082D3F89408C0F30A0319430A
